{
	"contracts/3_PolicyManagment.sol": {
		"PolicyManagementContract": {
			"abi": [
				{
					"inputs": [],
					"stateMutability": "nonpayable",
					"type": "constructor"
				},
				{
					"anonymous": false,
					"inputs": [
						{
							"indexed": true,
							"internalType": "address",
							"name": "user",
							"type": "address"
						},
						{
							"indexed": false,
							"internalType": "string",
							"name": "policyType",
							"type": "string"
						}
					],
					"name": "PolicyRegistered",
					"type": "event"
				},
				{
					"anonymous": false,
					"inputs": [
						{
							"indexed": true,
							"internalType": "address",
							"name": "user",
							"type": "address"
						},
						{
							"indexed": false,
							"internalType": "string",
							"name": "policyType",
							"type": "string"
						},
						{
							"indexed": false,
							"internalType": "bool",
							"name": "isFraudulent",
							"type": "bool"
						}
					],
					"name": "PolicyUpdated",
					"type": "event"
				},
				{
					"inputs": [
						{
							"internalType": "address",
							"name": "_user",
							"type": "address"
						}
					],
					"name": "getPolicy",
					"outputs": [
						{
							"components": [
								{
									"internalType": "string",
									"name": "policyType",
									"type": "string"
								},
								{
									"internalType": "uint256",
									"name": "coverageAmount",
									"type": "uint256"
								},
								{
									"internalType": "uint256",
									"name": "premium",
									"type": "uint256"
								},
								{
									"internalType": "uint256",
									"name": "startDate",
									"type": "uint256"
								},
								{
									"internalType": "uint256",
									"name": "endDate",
									"type": "uint256"
								},
								{
									"internalType": "bool",
									"name": "isFraudulent",
									"type": "bool"
								}
							],
							"internalType": "struct PolicyManagementContract.Policy",
							"name": "",
							"type": "tuple"
						}
					],
					"stateMutability": "view",
					"type": "function"
				},
				{
					"inputs": [],
					"name": "owner",
					"outputs": [
						{
							"internalType": "address",
							"name": "",
							"type": "address"
						}
					],
					"stateMutability": "view",
					"type": "function"
				},
				{
					"inputs": [
						{
							"internalType": "address",
							"name": "",
							"type": "address"
						}
					],
					"name": "policies",
					"outputs": [
						{
							"internalType": "string",
							"name": "policyType",
							"type": "string"
						},
						{
							"internalType": "uint256",
							"name": "coverageAmount",
							"type": "uint256"
						},
						{
							"internalType": "uint256",
							"name": "premium",
							"type": "uint256"
						},
						{
							"internalType": "uint256",
							"name": "startDate",
							"type": "uint256"
						},
						{
							"internalType": "uint256",
							"name": "endDate",
							"type": "uint256"
						},
						{
							"internalType": "bool",
							"name": "isFraudulent",
							"type": "bool"
						}
					],
					"stateMutability": "view",
					"type": "function"
				},
				{
					"inputs": [
						{
							"internalType": "address",
							"name": "_user",
							"type": "address"
						},
						{
							"internalType": "string",
							"name": "_policyType",
							"type": "string"
						},
						{
							"internalType": "uint256",
							"name": "_coverageAmount",
							"type": "uint256"
						},
						{
							"internalType": "uint256",
							"name": "_premium",
							"type": "uint256"
						},
						{
							"internalType": "uint256",
							"name": "_startDate",
							"type": "uint256"
						},
						{
							"internalType": "uint256",
							"name": "_endDate",
							"type": "uint256"
						}
					],
					"name": "registerPolicy",
					"outputs": [],
					"stateMutability": "nonpayable",
					"type": "function"
				},
				{
					"inputs": [
						{
							"internalType": "address",
							"name": "_user",
							"type": "address"
						},
						{
							"internalType": "bool",
							"name": "_isFraudulent",
							"type": "bool"
						}
					],
					"name": "updatePolicyFraudStatus",
					"outputs": [],
					"stateMutability": "nonpayable",
					"type": "function"
				}
			],
			"devdoc": {
				"kind": "dev",
				"methods": {},
				"version": 1
			},
			"evm": {
				"assembly": "    /* \"contracts/3_PolicyManagment.sol\":57:1760  contract PolicyManagementContract {... */\n  mstore(0x40, 0x80)\n    /* \"contracts/3_PolicyManagment.sol\":642:691  constructor() {... */\n  callvalue\n  dup1\n  iszero\n  tag_1\n  jumpi\n  0x00\n  dup1\n  revert\ntag_1:\n  pop\n    /* \"contracts/3_PolicyManagment.sol\":674:684  msg.sender */\n  caller\n    /* \"contracts/3_PolicyManagment.sol\":666:671  owner */\n  0x00\n  dup1\n    /* \"contracts/3_PolicyManagment.sol\":666:684  owner = msg.sender */\n  0x0100\n  exp\n  dup2\n  sload\n  dup2\n  0xffffffffffffffffffffffffffffffffffffffff\n  mul\n  not\n  and\n  swap1\n  dup4\n  0xffffffffffffffffffffffffffffffffffffffff\n  and\n  mul\n  or\n  swap1\n  sstore\n  pop\n    /* \"contracts/3_PolicyManagment.sol\":57:1760  contract PolicyManagementContract {... */\n  dataSize(sub_0)\n  dup1\n  dataOffset(sub_0)\n  0x00\n  codecopy\n  0x00\n  return\nstop\n\nsub_0: assembly {\n        /* \"contracts/3_PolicyManagment.sol\":57:1760  contract PolicyManagementContract {... */\n      mstore(0x40, 0x80)\n      callvalue\n      dup1\n      iszero\n      tag_1\n      jumpi\n      0x00\n      dup1\n      revert\n    tag_1:\n      pop\n      jumpi(tag_2, lt(calldatasize, 0x04))\n      shr(0xe0, calldataload(0x00))\n      dup1\n      0x20e98698\n      eq\n      tag_3\n      jumpi\n      dup1\n      0x3791dc6a\n      eq\n      tag_4\n      jumpi\n      dup1\n      0x8da5cb5b\n      eq\n      tag_5\n      jumpi\n      dup1\n      0xaf8dd94a\n      eq\n      tag_6\n      jumpi\n      dup1\n      0xe326559e\n      eq\n      tag_7\n      jumpi\n    tag_2:\n      0x00\n      dup1\n      revert\n        /* \"contracts/3_PolicyManagment.sol\":123:165  mapping(address => Policy) public policies */\n    tag_3:\n      tag_8\n      0x04\n      dup1\n      calldatasize\n      sub\n      dup2\n      add\n      swap1\n      tag_9\n      swap2\n      swap1\n      tag_10\n      jump\t// in\n    tag_9:\n      tag_11\n      jump\t// in\n    tag_8:\n      mload(0x40)\n      tag_12\n      swap7\n      swap6\n      swap5\n      swap4\n      swap3\n      swap2\n      swap1\n      tag_13\n      jump\t// in\n    tag_12:\n      mload(0x40)\n      dup1\n      swap2\n      sub\n      swap1\n      return\n        /* \"contracts/3_PolicyManagment.sol\":1560:1758  function getPolicy(address _user) external view returns (Policy memory) {... */\n    tag_4:\n      tag_14\n      0x04\n      dup1\n      calldatasize\n      sub\n      dup2\n      add\n      swap1\n      tag_15\n      swap2\n      swap1\n      tag_10\n      jump\t// in\n    tag_15:\n      tag_16\n      jump\t// in\n    tag_14:\n      mload(0x40)\n      tag_17\n      swap2\n      swap1\n      tag_18\n      jump\t// in\n    tag_17:\n      mload(0x40)\n      dup1\n      swap2\n      sub\n      swap1\n      return\n        /* \"contracts/3_PolicyManagment.sol\":97:117  address public owner */\n    tag_5:\n      tag_19\n      tag_20\n      jump\t// in\n    tag_19:\n      mload(0x40)\n      tag_21\n      swap2\n      swap1\n      tag_22\n      jump\t// in\n    tag_21:\n      mload(0x40)\n      dup1\n      swap2\n      sub\n      swap1\n      return\n        /* \"contracts/3_PolicyManagment.sol\":1240:1554  function updatePolicyFraudStatus(address _user, bool _isFraudulent) external onlyOwner {... */\n    tag_6:\n      tag_23\n      0x04\n      dup1\n      calldatasize\n      sub\n      dup2\n      add\n      swap1\n      tag_24\n      swap2\n      swap1\n      tag_25\n      jump\t// in\n    tag_24:\n      tag_26\n      jump\t// in\n    tag_23:\n      stop\n        /* \"contracts/3_PolicyManagment.sol\":697:1234  function registerPolicy(... */\n    tag_7:\n      tag_27\n      0x04\n      dup1\n      calldatasize\n      sub\n      dup2\n      add\n      swap1\n      tag_28\n      swap2\n      swap1\n      tag_29\n      jump\t// in\n    tag_28:\n      tag_30\n      jump\t// in\n    tag_27:\n      stop\n        /* \"contracts/3_PolicyManagment.sol\":123:165  mapping(address => Policy) public policies */\n    tag_11:\n      mstore(0x20, 0x01)\n      dup1\n      0x00\n      mstore\n      keccak256(0x00, 0x40)\n      0x00\n      swap2\n      pop\n      swap1\n      pop\n      dup1\n      0x00\n      add\n      dup1\n      sload\n      tag_31\n      swap1\n      tag_32\n      jump\t// in\n    tag_31:\n      dup1\n      0x1f\n      add\n      0x20\n      dup1\n      swap2\n      div\n      mul\n      0x20\n      add\n      mload(0x40)\n      swap1\n      dup2\n      add\n      0x40\n      mstore\n      dup1\n      swap3\n      swap2\n      swap1\n      dup2\n      dup2\n      mstore\n      0x20\n      add\n      dup3\n      dup1\n      sload\n      tag_33\n      swap1\n      tag_32\n      jump\t// in\n    tag_33:\n      dup1\n      iszero\n      tag_34\n      jumpi\n      dup1\n      0x1f\n      lt\n      tag_35\n      jumpi\n      0x0100\n      dup1\n      dup4\n      sload\n      div\n      mul\n      dup4\n      mstore\n      swap2\n      0x20\n      add\n      swap2\n      jump(tag_34)\n    tag_35:\n      dup3\n      add\n      swap2\n      swap1\n      0x00\n      mstore\n      keccak256(0x00, 0x20)\n      swap1\n    tag_36:\n      dup2\n      sload\n      dup2\n      mstore\n      swap1\n      0x01\n      add\n      swap1\n      0x20\n      add\n      dup1\n      dup4\n      gt\n      tag_36\n      jumpi\n      dup3\n      swap1\n      sub\n      0x1f\n      and\n      dup3\n      add\n      swap2\n    tag_34:\n      pop\n      pop\n      pop\n      pop\n      pop\n      swap1\n      dup1\n      0x01\n      add\n      sload\n      swap1\n      dup1\n      0x02\n      add\n      sload\n      swap1\n      dup1\n      0x03\n      add\n      sload\n      swap1\n      dup1\n      0x04\n      add\n      sload\n      swap1\n      dup1\n      0x05\n      add\n      0x00\n      swap1\n      sload\n      swap1\n      0x0100\n      exp\n      swap1\n      div\n      0xff\n      and\n      swap1\n      pop\n      dup7\n      jump\t// out\n        /* \"contracts/3_PolicyManagment.sol\":1560:1758  function getPolicy(address _user) external view returns (Policy memory) {... */\n    tag_16:\n        /* \"contracts/3_PolicyManagment.sol\":1617:1630  Policy memory */\n      tag_37\n      tag_38\n      jump\t// in\n    tag_37:\n        /* \"contracts/3_PolicyManagment.sol\":1679:1680  0 */\n      0x00\n        /* \"contracts/3_PolicyManagment.sol\":1650:1658  policies */\n      0x01\n        /* \"contracts/3_PolicyManagment.sol\":1650:1665  policies[_user] */\n      0x00\n        /* \"contracts/3_PolicyManagment.sol\":1659:1664  _user */\n      dup5\n        /* \"contracts/3_PolicyManagment.sol\":1650:1665  policies[_user] */\n      0xffffffffffffffffffffffffffffffffffffffff\n      and\n      0xffffffffffffffffffffffffffffffffffffffff\n      and\n      dup2\n      mstore\n      0x20\n      add\n      swap1\n      dup2\n      mstore\n      0x20\n      add\n      0x00\n      keccak256\n        /* \"contracts/3_PolicyManagment.sol\":1650:1675  policies[_user].startDate */\n      0x03\n      add\n      sload\n        /* \"contracts/3_PolicyManagment.sol\":1650:1680  policies[_user].startDate != 0 */\n      sub\n        /* \"contracts/3_PolicyManagment.sol\":1642:1719  require(policies[_user].startDate != 0, \"Policy not registered for the user\") */\n      tag_40\n      jumpi\n      mload(0x40)\n      0x08c379a000000000000000000000000000000000000000000000000000000000\n      dup2\n      mstore\n      0x04\n      add\n      tag_41\n      swap1\n      tag_42\n      jump\t// in\n    tag_41:\n      mload(0x40)\n      dup1\n      swap2\n      sub\n      swap1\n      revert\n    tag_40:\n        /* \"contracts/3_PolicyManagment.sol\":1736:1744  policies */\n      0x01\n        /* \"contracts/3_PolicyManagment.sol\":1736:1751  policies[_user] */\n      0x00\n        /* \"contracts/3_PolicyManagment.sol\":1745:1750  _user */\n      dup4\n        /* \"contracts/3_PolicyManagment.sol\":1736:1751  policies[_user] */\n      0xffffffffffffffffffffffffffffffffffffffff\n      and\n      0xffffffffffffffffffffffffffffffffffffffff\n      and\n      dup2\n      mstore\n      0x20\n      add\n      swap1\n      dup2\n      mstore\n      0x20\n      add\n      0x00\n      keccak256\n        /* \"contracts/3_PolicyManagment.sol\":1729:1751  return policies[_user] */\n      mload(0x40)\n      dup1\n      0xc0\n      add\n      0x40\n      mstore\n      swap1\n      dup2\n      0x00\n      dup3\n      add\n      dup1\n      sload\n      tag_43\n      swap1\n      tag_32\n      jump\t// in\n    tag_43:\n      dup1\n      0x1f\n      add\n      0x20\n      dup1\n      swap2\n      div\n      mul\n      0x20\n      add\n      mload(0x40)\n      swap1\n      dup2\n      add\n      0x40\n      mstore\n      dup1\n      swap3\n      swap2\n      swap1\n      dup2\n      dup2\n      mstore\n      0x20\n      add\n      dup3\n      dup1\n      sload\n      tag_44\n      swap1\n      tag_32\n      jump\t// in\n    tag_44:\n      dup1\n      iszero\n      tag_45\n      jumpi\n      dup1\n      0x1f\n      lt\n      tag_46\n      jumpi\n      0x0100\n      dup1\n      dup4\n      sload\n      div\n      mul\n      dup4\n      mstore\n      swap2\n      0x20\n      add\n      swap2\n      jump(tag_45)\n    tag_46:\n      dup3\n      add\n      swap2\n      swap1\n      0x00\n      mstore\n      keccak256(0x00, 0x20)\n      swap1\n    tag_47:\n      dup2\n      sload\n      dup2\n      mstore\n      swap1\n      0x01\n      add\n      swap1\n      0x20\n      add\n      dup1\n      dup4\n      gt\n      tag_47\n      jumpi\n      dup3\n      swap1\n      sub\n      0x1f\n      and\n      dup3\n      add\n      swap2\n    tag_45:\n      pop\n      pop\n      pop\n      pop\n      pop\n      dup2\n      mstore\n      0x20\n      add\n      0x01\n      dup3\n      add\n      sload\n      dup2\n      mstore\n      0x20\n      add\n      0x02\n      dup3\n      add\n      sload\n      dup2\n      mstore\n      0x20\n      add\n      0x03\n      dup3\n      add\n      sload\n      dup2\n      mstore\n      0x20\n      add\n      0x04\n      dup3\n      add\n      sload\n      dup2\n      mstore\n      0x20\n      add\n      0x05\n      dup3\n      add\n      0x00\n      swap1\n      sload\n      swap1\n      0x0100\n      exp\n      swap1\n      div\n      0xff\n      and\n      iszero\n      iszero\n      iszero\n      iszero\n      dup2\n      mstore\n      pop\n      pop\n      swap1\n      pop\n        /* \"contracts/3_PolicyManagment.sol\":1560:1758  function getPolicy(address _user) external view returns (Policy memory) {... */\n      swap2\n      swap1\n      pop\n      jump\t// out\n        /* \"contracts/3_PolicyManagment.sol\":97:117  address public owner */\n    tag_20:\n      0x00\n      dup1\n      sload\n      swap1\n      0x0100\n      exp\n      swap1\n      div\n      0xffffffffffffffffffffffffffffffffffffffff\n      and\n      dup2\n      jump\t// out\n        /* \"contracts/3_PolicyManagment.sol\":1240:1554  function updatePolicyFraudStatus(address _user, bool _isFraudulent) external onlyOwner {... */\n    tag_26:\n        /* \"contracts/3_PolicyManagment.sol\":570:575  owner */\n      0x00\n      dup1\n      sload\n      swap1\n      0x0100\n      exp\n      swap1\n      div\n      0xffffffffffffffffffffffffffffffffffffffff\n      and\n        /* \"contracts/3_PolicyManagment.sol\":556:575  msg.sender == owner */\n      0xffffffffffffffffffffffffffffffffffffffff\n      and\n        /* \"contracts/3_PolicyManagment.sol\":556:566  msg.sender */\n      caller\n        /* \"contracts/3_PolicyManagment.sol\":556:575  msg.sender == owner */\n      0xffffffffffffffffffffffffffffffffffffffff\n      and\n      eq\n        /* \"contracts/3_PolicyManagment.sol\":548:618  require(msg.sender == owner, \"Only the owner can perform this action\") */\n      tag_49\n      jumpi\n      mload(0x40)\n      0x08c379a000000000000000000000000000000000000000000000000000000000\n      dup2\n      mstore\n      0x04\n      add\n      tag_50\n      swap1\n      tag_51\n      jump\t// in\n    tag_50:\n      mload(0x40)\n      dup1\n      swap2\n      sub\n      swap1\n      revert\n    tag_49:\n        /* \"contracts/3_PolicyManagment.sol\":1374:1375  0 */\n      0x00\n        /* \"contracts/3_PolicyManagment.sol\":1345:1353  policies */\n      0x01\n        /* \"contracts/3_PolicyManagment.sol\":1345:1360  policies[_user] */\n      0x00\n        /* \"contracts/3_PolicyManagment.sol\":1354:1359  _user */\n      dup5\n        /* \"contracts/3_PolicyManagment.sol\":1345:1360  policies[_user] */\n      0xffffffffffffffffffffffffffffffffffffffff\n      and\n      0xffffffffffffffffffffffffffffffffffffffff\n      and\n      dup2\n      mstore\n      0x20\n      add\n      swap1\n      dup2\n      mstore\n      0x20\n      add\n      0x00\n      keccak256\n        /* \"contracts/3_PolicyManagment.sol\":1345:1370  policies[_user].startDate */\n      0x03\n      add\n      sload\n        /* \"contracts/3_PolicyManagment.sol\":1345:1375  policies[_user].startDate != 0 */\n      sub\n        /* \"contracts/3_PolicyManagment.sol\":1337:1414  require(policies[_user].startDate != 0, \"Policy not registered for the user\") */\n      tag_53\n      jumpi\n      mload(0x40)\n      0x08c379a000000000000000000000000000000000000000000000000000000000\n      dup2\n      mstore\n      0x04\n      add\n      tag_54\n      swap1\n      tag_42\n      jump\t// in\n    tag_54:\n      mload(0x40)\n      dup1\n      swap2\n      sub\n      swap1\n      revert\n    tag_53:\n        /* \"contracts/3_PolicyManagment.sol\":1455:1468  _isFraudulent */\n      dup1\n        /* \"contracts/3_PolicyManagment.sol\":1424:1432  policies */\n      0x01\n        /* \"contracts/3_PolicyManagment.sol\":1424:1439  policies[_user] */\n      0x00\n        /* \"contracts/3_PolicyManagment.sol\":1433:1438  _user */\n      dup5\n        /* \"contracts/3_PolicyManagment.sol\":1424:1439  policies[_user] */\n      0xffffffffffffffffffffffffffffffffffffffff\n      and\n      0xffffffffffffffffffffffffffffffffffffffff\n      and\n      dup2\n      mstore\n      0x20\n      add\n      swap1\n      dup2\n      mstore\n      0x20\n      add\n      0x00\n      keccak256\n        /* \"contracts/3_PolicyManagment.sol\":1424:1452  policies[_user].isFraudulent */\n      0x05\n      add\n      0x00\n        /* \"contracts/3_PolicyManagment.sol\":1424:1468  policies[_user].isFraudulent = _isFraudulent */\n      0x0100\n      exp\n      dup2\n      sload\n      dup2\n      0xff\n      mul\n      not\n      and\n      swap1\n      dup4\n      iszero\n      iszero\n      mul\n      or\n      swap1\n      sstore\n      pop\n        /* \"contracts/3_PolicyManagment.sol\":1498:1503  _user */\n      dup2\n        /* \"contracts/3_PolicyManagment.sol\":1484:1547  PolicyUpdated(_user, policies[_user].policyType, _isFraudulent) */\n      0xffffffffffffffffffffffffffffffffffffffff\n      and\n      0x1c06de2339aa3f2571617536786b43cf2d01b6fd626aeb7aec25cf15007ea9d8\n        /* \"contracts/3_PolicyManagment.sol\":1505:1513  policies */\n      0x01\n        /* \"contracts/3_PolicyManagment.sol\":1505:1520  policies[_user] */\n      0x00\n        /* \"contracts/3_PolicyManagment.sol\":1514:1519  _user */\n      dup6\n        /* \"contracts/3_PolicyManagment.sol\":1505:1520  policies[_user] */\n      0xffffffffffffffffffffffffffffffffffffffff\n      and\n      0xffffffffffffffffffffffffffffffffffffffff\n      and\n      dup2\n      mstore\n      0x20\n      add\n      swap1\n      dup2\n      mstore\n      0x20\n      add\n      0x00\n      keccak256\n        /* \"contracts/3_PolicyManagment.sol\":1505:1531  policies[_user].policyType */\n      0x00\n      add\n        /* \"contracts/3_PolicyManagment.sol\":1533:1546  _isFraudulent */\n      dup4\n        /* \"contracts/3_PolicyManagment.sol\":1484:1547  PolicyUpdated(_user, policies[_user].policyType, _isFraudulent) */\n      mload(0x40)\n      tag_55\n      swap3\n      swap2\n      swap1\n      tag_56\n      jump\t// in\n    tag_55:\n      mload(0x40)\n      dup1\n      swap2\n      sub\n      swap1\n      log2\n        /* \"contracts/3_PolicyManagment.sol\":1240:1554  function updatePolicyFraudStatus(address _user, bool _isFraudulent) external onlyOwner {... */\n      pop\n      pop\n      jump\t// out\n        /* \"contracts/3_PolicyManagment.sol\":697:1234  function registerPolicy(... */\n    tag_30:\n        /* \"contracts/3_PolicyManagment.sol\":570:575  owner */\n      0x00\n      dup1\n      sload\n      swap1\n      0x0100\n      exp\n      swap1\n      div\n      0xffffffffffffffffffffffffffffffffffffffff\n      and\n        /* \"contracts/3_PolicyManagment.sol\":556:575  msg.sender == owner */\n      0xffffffffffffffffffffffffffffffffffffffff\n      and\n        /* \"contracts/3_PolicyManagment.sol\":556:566  msg.sender */\n      caller\n        /* \"contracts/3_PolicyManagment.sol\":556:575  msg.sender == owner */\n      0xffffffffffffffffffffffffffffffffffffffff\n      and\n      eq\n        /* \"contracts/3_PolicyManagment.sol\":548:618  require(msg.sender == owner, \"Only the owner can perform this action\") */\n      tag_58\n      jumpi\n      mload(0x40)\n      0x08c379a000000000000000000000000000000000000000000000000000000000\n      dup2\n      mstore\n      0x04\n      add\n      tag_59\n      swap1\n      tag_51\n      jump\t// in\n    tag_59:\n      mload(0x40)\n      dup1\n      swap2\n      sub\n      swap1\n      revert\n    tag_58:\n        /* \"contracts/3_PolicyManagment.sol\":945:1175  Policy({... */\n      mload(0x40)\n      dup1\n      0xc0\n      add\n      0x40\n      mstore\n      dup1\n        /* \"contracts/3_PolicyManagment.sol\":978:989  _policyType */\n      dup7\n        /* \"contracts/3_PolicyManagment.sol\":945:1175  Policy({... */\n      dup2\n      mstore\n      0x20\n      add\n        /* \"contracts/3_PolicyManagment.sol\":1019:1034  _coverageAmount */\n      dup6\n        /* \"contracts/3_PolicyManagment.sol\":945:1175  Policy({... */\n      dup2\n      mstore\n      0x20\n      add\n        /* \"contracts/3_PolicyManagment.sol\":1057:1065  _premium */\n      dup5\n        /* \"contracts/3_PolicyManagment.sol\":945:1175  Policy({... */\n      dup2\n      mstore\n      0x20\n      add\n        /* \"contracts/3_PolicyManagment.sol\":1090:1100  _startDate */\n      dup4\n        /* \"contracts/3_PolicyManagment.sol\":945:1175  Policy({... */\n      dup2\n      mstore\n      0x20\n      add\n        /* \"contracts/3_PolicyManagment.sol\":1123:1131  _endDate */\n      dup3\n        /* \"contracts/3_PolicyManagment.sol\":945:1175  Policy({... */\n      dup2\n      mstore\n      0x20\n      add\n        /* \"contracts/3_PolicyManagment.sol\":1159:1164  false */\n      0x00\n        /* \"contracts/3_PolicyManagment.sol\":945:1175  Policy({... */\n      iszero\n      iszero\n      dup2\n      mstore\n      pop\n        /* \"contracts/3_PolicyManagment.sol\":927:935  policies */\n      0x01\n        /* \"contracts/3_PolicyManagment.sol\":927:942  policies[_user] */\n      0x00\n        /* \"contracts/3_PolicyManagment.sol\":936:941  _user */\n      dup9\n        /* \"contracts/3_PolicyManagment.sol\":927:942  policies[_user] */\n      0xffffffffffffffffffffffffffffffffffffffff\n      and\n      0xffffffffffffffffffffffffffffffffffffffff\n      and\n      dup2\n      mstore\n      0x20\n      add\n      swap1\n      dup2\n      mstore\n      0x20\n      add\n      0x00\n      keccak256\n        /* \"contracts/3_PolicyManagment.sol\":927:1175  policies[_user] = Policy({... */\n      0x00\n      dup3\n      add\n      mload\n      dup2\n      0x00\n      add\n      swap1\n      dup2\n      tag_61\n      swap2\n      swap1\n      tag_62\n      jump\t// in\n    tag_61:\n      pop\n      0x20\n      dup3\n      add\n      mload\n      dup2\n      0x01\n      add\n      sstore\n      0x40\n      dup3\n      add\n      mload\n      dup2\n      0x02\n      add\n      sstore\n      0x60\n      dup3\n      add\n      mload\n      dup2\n      0x03\n      add\n      sstore\n      0x80\n      dup3\n      add\n      mload\n      dup2\n      0x04\n      add\n      sstore\n      0xa0\n      dup3\n      add\n      mload\n      dup2\n      0x05\n      add\n      exp(0x0100, 0x00)\n      dup2\n      sload\n      dup2\n      0xff\n      mul\n      not\n      and\n      swap1\n      dup4\n      iszero\n      iszero\n      mul\n      or\n      swap1\n      sstore\n      pop\n      swap1\n      pop\n      pop\n        /* \"contracts/3_PolicyManagment.sol\":1208:1213  _user */\n      dup6\n        /* \"contracts/3_PolicyManagment.sol\":1191:1227  PolicyRegistered(_user, _policyType) */\n      0xffffffffffffffffffffffffffffffffffffffff\n      and\n      0x2afe0ec3281b58bb17cc68a436e9f659b64173970deff8d9f5632a1ef7fb9718\n        /* \"contracts/3_PolicyManagment.sol\":1215:1226  _policyType */\n      dup7\n        /* \"contracts/3_PolicyManagment.sol\":1191:1227  PolicyRegistered(_user, _policyType) */\n      mload(0x40)\n      tag_63\n      swap2\n      swap1\n      tag_64\n      jump\t// in\n    tag_63:\n      mload(0x40)\n      dup1\n      swap2\n      sub\n      swap1\n      log2\n        /* \"contracts/3_PolicyManagment.sol\":697:1234  function registerPolicy(... */\n      pop\n      pop\n      pop\n      pop\n      pop\n      pop\n      jump\t// out\n    tag_38:\n      mload(0x40)\n      dup1\n      0xc0\n      add\n      0x40\n      mstore\n      dup1\n      0x60\n      dup2\n      mstore\n      0x20\n      add\n      0x00\n      dup2\n      mstore\n      0x20\n      add\n      0x00\n      dup2\n      mstore\n      0x20\n      add\n      0x00\n      dup2\n      mstore\n      0x20\n      add\n      0x00\n      dup2\n      mstore\n      0x20\n      add\n      iszero(iszero(0x00))\n      dup2\n      mstore\n      pop\n      swap1\n      jump\t// out\n        /* \"#utility.yul\":7:82   */\n    tag_65:\n        /* \"#utility.yul\":40:46   */\n      0x00\n        /* \"#utility.yul\":73:75   */\n      0x40\n        /* \"#utility.yul\":67:76   */\n      mload\n        /* \"#utility.yul\":57:76   */\n      swap1\n      pop\n        /* \"#utility.yul\":7:82   */\n      swap1\n      jump\t// out\n        /* \"#utility.yul\":88:205   */\n    tag_66:\n        /* \"#utility.yul\":197:198   */\n      0x00\n        /* \"#utility.yul\":194:195   */\n      dup1\n        /* \"#utility.yul\":187:199   */\n      revert\n        /* \"#utility.yul\":211:328   */\n    tag_67:\n        /* \"#utility.yul\":320:321   */\n      0x00\n        /* \"#utility.yul\":317:318   */\n      dup1\n        /* \"#utility.yul\":310:322   */\n      revert\n        /* \"#utility.yul\":334:460   */\n    tag_68:\n        /* \"#utility.yul\":371:378   */\n      0x00\n        /* \"#utility.yul\":411:453   */\n      0xffffffffffffffffffffffffffffffffffffffff\n        /* \"#utility.yul\":404:409   */\n      dup3\n        /* \"#utility.yul\":400:454   */\n      and\n        /* \"#utility.yul\":389:454   */\n      swap1\n      pop\n        /* \"#utility.yul\":334:460   */\n      swap2\n      swap1\n      pop\n      jump\t// out\n        /* \"#utility.yul\":466:562   */\n    tag_69:\n        /* \"#utility.yul\":503:510   */\n      0x00\n        /* \"#utility.yul\":532:556   */\n      tag_127\n        /* \"#utility.yul\":550:555   */\n      dup3\n        /* \"#utility.yul\":532:556   */\n      tag_68\n      jump\t// in\n    tag_127:\n        /* \"#utility.yul\":521:556   */\n      swap1\n      pop\n        /* \"#utility.yul\":466:562   */\n      swap2\n      swap1\n      pop\n      jump\t// out\n        /* \"#utility.yul\":568:690   */\n    tag_70:\n        /* \"#utility.yul\":641:665   */\n      tag_129\n        /* \"#utility.yul\":659:664   */\n      dup2\n        /* \"#utility.yul\":641:665   */\n      tag_69\n      jump\t// in\n    tag_129:\n        /* \"#utility.yul\":634:639   */\n      dup2\n        /* \"#utility.yul\":631:666   */\n      eq\n        /* \"#utility.yul\":621:684   */\n      tag_130\n      jumpi\n        /* \"#utility.yul\":680:681   */\n      0x00\n        /* \"#utility.yul\":677:678   */\n      dup1\n        /* \"#utility.yul\":670:682   */\n      revert\n        /* \"#utility.yul\":621:684   */\n    tag_130:\n        /* \"#utility.yul\":568:690   */\n      pop\n      jump\t// out\n        /* \"#utility.yul\":696:835   */\n    tag_71:\n        /* \"#utility.yul\":742:747   */\n      0x00\n        /* \"#utility.yul\":780:786   */\n      dup2\n        /* \"#utility.yul\":767:787   */\n      calldataload\n        /* \"#utility.yul\":758:787   */\n      swap1\n      pop\n        /* \"#utility.yul\":796:829   */\n      tag_132\n        /* \"#utility.yul\":823:828   */\n      dup2\n        /* \"#utility.yul\":796:829   */\n      tag_70\n      jump\t// in\n    tag_132:\n        /* \"#utility.yul\":696:835   */\n      swap3\n      swap2\n      pop\n      pop\n      jump\t// out\n        /* \"#utility.yul\":841:1170   */\n    tag_10:\n        /* \"#utility.yul\":900:906   */\n      0x00\n        /* \"#utility.yul\":949:951   */\n      0x20\n        /* \"#utility.yul\":937:946   */\n      dup3\n        /* \"#utility.yul\":928:935   */\n      dup5\n        /* \"#utility.yul\":924:947   */\n      sub\n        /* \"#utility.yul\":920:952   */\n      slt\n        /* \"#utility.yul\":917:1036   */\n      iszero\n      tag_134\n      jumpi\n        /* \"#utility.yul\":955:1034   */\n      tag_135\n      tag_66\n      jump\t// in\n    tag_135:\n        /* \"#utility.yul\":917:1036   */\n    tag_134:\n        /* \"#utility.yul\":1075:1076   */\n      0x00\n        /* \"#utility.yul\":1100:1153   */\n      tag_136\n        /* \"#utility.yul\":1145:1152   */\n      dup5\n        /* \"#utility.yul\":1136:1142   */\n      dup3\n        /* \"#utility.yul\":1125:1134   */\n      dup6\n        /* \"#utility.yul\":1121:1143   */\n      add\n        /* \"#utility.yul\":1100:1153   */\n      tag_71\n      jump\t// in\n    tag_136:\n        /* \"#utility.yul\":1090:1153   */\n      swap2\n      pop\n        /* \"#utility.yul\":1046:1163   */\n      pop\n        /* \"#utility.yul\":841:1170   */\n      swap3\n      swap2\n      pop\n      pop\n      jump\t// out\n        /* \"#utility.yul\":1176:1275   */\n    tag_72:\n        /* \"#utility.yul\":1228:1234   */\n      0x00\n        /* \"#utility.yul\":1262:1267   */\n      dup2\n        /* \"#utility.yul\":1256:1268   */\n      mload\n        /* \"#utility.yul\":1246:1268   */\n      swap1\n      pop\n        /* \"#utility.yul\":1176:1275   */\n      swap2\n      swap1\n      pop\n      jump\t// out\n        /* \"#utility.yul\":1281:1450   */\n    tag_73:\n        /* \"#utility.yul\":1365:1376   */\n      0x00\n        /* \"#utility.yul\":1399:1405   */\n      dup3\n        /* \"#utility.yul\":1394:1397   */\n      dup3\n        /* \"#utility.yul\":1387:1406   */\n      mstore\n        /* \"#utility.yul\":1439:1443   */\n      0x20\n        /* \"#utility.yul\":1434:1437   */\n      dup3\n        /* \"#utility.yul\":1430:1444   */\n      add\n        /* \"#utility.yul\":1415:1444   */\n      swap1\n      pop\n        /* \"#utility.yul\":1281:1450   */\n      swap3\n      swap2\n      pop\n      pop\n      jump\t// out\n        /* \"#utility.yul\":1456:1702   */\n    tag_74:\n        /* \"#utility.yul\":1537:1538   */\n      0x00\n        /* \"#utility.yul\":1547:1660   */\n    tag_140:\n        /* \"#utility.yul\":1561:1567   */\n      dup4\n        /* \"#utility.yul\":1558:1559   */\n      dup2\n        /* \"#utility.yul\":1555:1568   */\n      lt\n        /* \"#utility.yul\":1547:1660   */\n      iszero\n      tag_142\n      jumpi\n        /* \"#utility.yul\":1646:1647   */\n      dup1\n        /* \"#utility.yul\":1641:1644   */\n      dup3\n        /* \"#utility.yul\":1637:1648   */\n      add\n        /* \"#utility.yul\":1631:1649   */\n      mload\n        /* \"#utility.yul\":1627:1628   */\n      dup2\n        /* \"#utility.yul\":1622:1625   */\n      dup5\n        /* \"#utility.yul\":1618:1629   */\n      add\n        /* \"#utility.yul\":1611:1650   */\n      mstore\n        /* \"#utility.yul\":1583:1585   */\n      0x20\n        /* \"#utility.yul\":1580:1581   */\n      dup2\n        /* \"#utility.yul\":1576:1586   */\n      add\n        /* \"#utility.yul\":1571:1586   */\n      swap1\n      pop\n        /* \"#utility.yul\":1547:1660   */\n      jump(tag_140)\n    tag_142:\n        /* \"#utility.yul\":1694:1695   */\n      0x00\n        /* \"#utility.yul\":1685:1691   */\n      dup5\n        /* \"#utility.yul\":1680:1683   */\n      dup5\n        /* \"#utility.yul\":1676:1692   */\n      add\n        /* \"#utility.yul\":1669:1696   */\n      mstore\n        /* \"#utility.yul\":1518:1702   */\n      pop\n        /* \"#utility.yul\":1456:1702   */\n      pop\n      pop\n      pop\n      jump\t// out\n        /* \"#utility.yul\":1708:1810   */\n    tag_75:\n        /* \"#utility.yul\":1749:1755   */\n      0x00\n        /* \"#utility.yul\":1800:1802   */\n      0x1f\n        /* \"#utility.yul\":1796:1803   */\n      not\n        /* \"#utility.yul\":1791:1793   */\n      0x1f\n        /* \"#utility.yul\":1784:1789   */\n      dup4\n        /* \"#utility.yul\":1780:1794   */\n      add\n        /* \"#utility.yul\":1776:1804   */\n      and\n        /* \"#utility.yul\":1766:1804   */\n      swap1\n      pop\n        /* \"#utility.yul\":1708:1810   */\n      swap2\n      swap1\n      pop\n      jump\t// out\n        /* \"#utility.yul\":1816:2193   */\n    tag_76:\n        /* \"#utility.yul\":1904:1907   */\n      0x00\n        /* \"#utility.yul\":1932:1971   */\n      tag_145\n        /* \"#utility.yul\":1965:1970   */\n      dup3\n        /* \"#utility.yul\":1932:1971   */\n      tag_72\n      jump\t// in\n    tag_145:\n        /* \"#utility.yul\":1987:2058   */\n      tag_146\n        /* \"#utility.yul\":2051:2057   */\n      dup2\n        /* \"#utility.yul\":2046:2049   */\n      dup6\n        /* \"#utility.yul\":1987:2058   */\n      tag_73\n      jump\t// in\n    tag_146:\n        /* \"#utility.yul\":1980:2058   */\n      swap4\n      pop\n        /* \"#utility.yul\":2067:2132   */\n      tag_147\n        /* \"#utility.yul\":2125:2131   */\n      dup2\n        /* \"#utility.yul\":2120:2123   */\n      dup6\n        /* \"#utility.yul\":2113:2117   */\n      0x20\n        /* \"#utility.yul\":2106:2111   */\n      dup7\n        /* \"#utility.yul\":2102:2118   */\n      add\n        /* \"#utility.yul\":2067:2132   */\n      tag_74\n      jump\t// in\n    tag_147:\n        /* \"#utility.yul\":2157:2186   */\n      tag_148\n        /* \"#utility.yul\":2179:2185   */\n      dup2\n        /* \"#utility.yul\":2157:2186   */\n      tag_75\n      jump\t// in\n    tag_148:\n        /* \"#utility.yul\":2152:2155   */\n      dup5\n        /* \"#utility.yul\":2148:2187   */\n      add\n        /* \"#utility.yul\":2141:2187   */\n      swap2\n      pop\n        /* \"#utility.yul\":1908:2193   */\n      pop\n        /* \"#utility.yul\":1816:2193   */\n      swap3\n      swap2\n      pop\n      pop\n      jump\t// out\n        /* \"#utility.yul\":2199:2276   */\n    tag_77:\n        /* \"#utility.yul\":2236:2243   */\n      0x00\n        /* \"#utility.yul\":2265:2270   */\n      dup2\n        /* \"#utility.yul\":2254:2270   */\n      swap1\n      pop\n        /* \"#utility.yul\":2199:2276   */\n      swap2\n      swap1\n      pop\n      jump\t// out\n        /* \"#utility.yul\":2282:2400   */\n    tag_78:\n        /* \"#utility.yul\":2369:2393   */\n      tag_151\n        /* \"#utility.yul\":2387:2392   */\n      dup2\n        /* \"#utility.yul\":2369:2393   */\n      tag_77\n      jump\t// in\n    tag_151:\n        /* \"#utility.yul\":2364:2367   */\n      dup3\n        /* \"#utility.yul\":2357:2394   */\n      mstore\n        /* \"#utility.yul\":2282:2400   */\n      pop\n      pop\n      jump\t// out\n        /* \"#utility.yul\":2406:2496   */\n    tag_79:\n        /* \"#utility.yul\":2440:2447   */\n      0x00\n        /* \"#utility.yul\":2483:2488   */\n      dup2\n        /* \"#utility.yul\":2476:2489   */\n      iszero\n        /* \"#utility.yul\":2469:2490   */\n      iszero\n        /* \"#utility.yul\":2458:2490   */\n      swap1\n      pop\n        /* \"#utility.yul\":2406:2496   */\n      swap2\n      swap1\n      pop\n      jump\t// out\n        /* \"#utility.yul\":2502:2611   */\n    tag_80:\n        /* \"#utility.yul\":2583:2604   */\n      tag_154\n        /* \"#utility.yul\":2598:2603   */\n      dup2\n        /* \"#utility.yul\":2583:2604   */\n      tag_79\n      jump\t// in\n    tag_154:\n        /* \"#utility.yul\":2578:2581   */\n      dup3\n        /* \"#utility.yul\":2571:2605   */\n      mstore\n        /* \"#utility.yul\":2502:2611   */\n      pop\n      pop\n      jump\t// out\n        /* \"#utility.yul\":2617:3471   */\n    tag_13:\n        /* \"#utility.yul\":2864:2868   */\n      0x00\n        /* \"#utility.yul\":2902:2905   */\n      0xc0\n        /* \"#utility.yul\":2891:2900   */\n      dup3\n        /* \"#utility.yul\":2887:2906   */\n      add\n        /* \"#utility.yul\":2879:2906   */\n      swap1\n      pop\n        /* \"#utility.yul\":2952:2961   */\n      dup2\n        /* \"#utility.yul\":2946:2950   */\n      dup2\n        /* \"#utility.yul\":2942:2962   */\n      sub\n        /* \"#utility.yul\":2938:2939   */\n      0x00\n        /* \"#utility.yul\":2927:2936   */\n      dup4\n        /* \"#utility.yul\":2923:2940   */\n      add\n        /* \"#utility.yul\":2916:2963   */\n      mstore\n        /* \"#utility.yul\":2980:3058   */\n      tag_156\n        /* \"#utility.yul\":3053:3057   */\n      dup2\n        /* \"#utility.yul\":3044:3050   */\n      dup10\n        /* \"#utility.yul\":2980:3058   */\n      tag_76\n      jump\t// in\n    tag_156:\n        /* \"#utility.yul\":2972:3058   */\n      swap1\n      pop\n        /* \"#utility.yul\":3068:3140   */\n      tag_157\n        /* \"#utility.yul\":3136:3138   */\n      0x20\n        /* \"#utility.yul\":3125:3134   */\n      dup4\n        /* \"#utility.yul\":3121:3139   */\n      add\n        /* \"#utility.yul\":3112:3118   */\n      dup9\n        /* \"#utility.yul\":3068:3140   */\n      tag_78\n      jump\t// in\n    tag_157:\n        /* \"#utility.yul\":3150:3222   */\n      tag_158\n        /* \"#utility.yul\":3218:3220   */\n      0x40\n        /* \"#utility.yul\":3207:3216   */\n      dup4\n        /* \"#utility.yul\":3203:3221   */\n      add\n        /* \"#utility.yul\":3194:3200   */\n      dup8\n        /* \"#utility.yul\":3150:3222   */\n      tag_78\n      jump\t// in\n    tag_158:\n        /* \"#utility.yul\":3232:3304   */\n      tag_159\n        /* \"#utility.yul\":3300:3302   */\n      0x60\n        /* \"#utility.yul\":3289:3298   */\n      dup4\n        /* \"#utility.yul\":3285:3303   */\n      add\n        /* \"#utility.yul\":3276:3282   */\n      dup7\n        /* \"#utility.yul\":3232:3304   */\n      tag_78\n      jump\t// in\n    tag_159:\n        /* \"#utility.yul\":3314:3387   */\n      tag_160\n        /* \"#utility.yul\":3382:3385   */\n      0x80\n        /* \"#utility.yul\":3371:3380   */\n      dup4\n        /* \"#utility.yul\":3367:3386   */\n      add\n        /* \"#utility.yul\":3358:3364   */\n      dup6\n        /* \"#utility.yul\":3314:3387   */\n      tag_78\n      jump\t// in\n    tag_160:\n        /* \"#utility.yul\":3397:3464   */\n      tag_161\n        /* \"#utility.yul\":3459:3462   */\n      0xa0\n        /* \"#utility.yul\":3448:3457   */\n      dup4\n        /* \"#utility.yul\":3444:3463   */\n      add\n        /* \"#utility.yul\":3435:3441   */\n      dup5\n        /* \"#utility.yul\":3397:3464   */\n      tag_80\n      jump\t// in\n    tag_161:\n        /* \"#utility.yul\":2617:3471   */\n      swap8\n      swap7\n      pop\n      pop\n      pop\n      pop\n      pop\n      pop\n      pop\n      jump\t// out\n        /* \"#utility.yul\":3477:3636   */\n    tag_81:\n        /* \"#utility.yul\":3551:3562   */\n      0x00\n        /* \"#utility.yul\":3585:3591   */\n      dup3\n        /* \"#utility.yul\":3580:3583   */\n      dup3\n        /* \"#utility.yul\":3573:3592   */\n      mstore\n        /* \"#utility.yul\":3625:3629   */\n      0x20\n        /* \"#utility.yul\":3620:3623   */\n      dup3\n        /* \"#utility.yul\":3616:3630   */\n      add\n        /* \"#utility.yul\":3601:3630   */\n      swap1\n      pop\n        /* \"#utility.yul\":3477:3636   */\n      swap3\n      swap2\n      pop\n      pop\n      jump\t// out\n        /* \"#utility.yul\":3642:3999   */\n    tag_82:\n        /* \"#utility.yul\":3720:3723   */\n      0x00\n        /* \"#utility.yul\":3748:3787   */\n      tag_164\n        /* \"#utility.yul\":3781:3786   */\n      dup3\n        /* \"#utility.yul\":3748:3787   */\n      tag_72\n      jump\t// in\n    tag_164:\n        /* \"#utility.yul\":3803:3864   */\n      tag_165\n        /* \"#utility.yul\":3857:3863   */\n      dup2\n        /* \"#utility.yul\":3852:3855   */\n      dup6\n        /* \"#utility.yul\":3803:3864   */\n      tag_81\n      jump\t// in\n    tag_165:\n        /* \"#utility.yul\":3796:3864   */\n      swap4\n      pop\n        /* \"#utility.yul\":3873:3938   */\n      tag_166\n        /* \"#utility.yul\":3931:3937   */\n      dup2\n        /* \"#utility.yul\":3926:3929   */\n      dup6\n        /* \"#utility.yul\":3919:3923   */\n      0x20\n        /* \"#utility.yul\":3912:3917   */\n      dup7\n        /* \"#utility.yul\":3908:3924   */\n      add\n        /* \"#utility.yul\":3873:3938   */\n      tag_74\n      jump\t// in\n    tag_166:\n        /* \"#utility.yul\":3963:3992   */\n      tag_167\n        /* \"#utility.yul\":3985:3991   */\n      dup2\n        /* \"#utility.yul\":3963:3992   */\n      tag_75\n      jump\t// in\n    tag_167:\n        /* \"#utility.yul\":3958:3961   */\n      dup5\n        /* \"#utility.yul\":3954:3993   */\n      add\n        /* \"#utility.yul\":3947:3993   */\n      swap2\n      pop\n        /* \"#utility.yul\":3724:3999   */\n      pop\n        /* \"#utility.yul\":3642:3999   */\n      swap3\n      swap2\n      pop\n      pop\n      jump\t// out\n        /* \"#utility.yul\":4005:4113   */\n    tag_83:\n        /* \"#utility.yul\":4082:4106   */\n      tag_169\n        /* \"#utility.yul\":4100:4105   */\n      dup2\n        /* \"#utility.yul\":4082:4106   */\n      tag_77\n      jump\t// in\n    tag_169:\n        /* \"#utility.yul\":4077:4080   */\n      dup3\n        /* \"#utility.yul\":4070:4107   */\n      mstore\n        /* \"#utility.yul\":4005:4113   */\n      pop\n      pop\n      jump\t// out\n        /* \"#utility.yul\":4119:4218   */\n    tag_84:\n        /* \"#utility.yul\":4190:4211   */\n      tag_171\n        /* \"#utility.yul\":4205:4210   */\n      dup2\n        /* \"#utility.yul\":4190:4211   */\n      tag_79\n      jump\t// in\n    tag_171:\n        /* \"#utility.yul\":4185:4188   */\n      dup3\n        /* \"#utility.yul\":4178:4212   */\n      mstore\n        /* \"#utility.yul\":4119:4218   */\n      pop\n      pop\n      jump\t// out\n        /* \"#utility.yul\":4312:5637   */\n    tag_85:\n        /* \"#utility.yul\":4425:4428   */\n      0x00\n        /* \"#utility.yul\":4461:4465   */\n      0xc0\n        /* \"#utility.yul\":4456:4459   */\n      dup4\n        /* \"#utility.yul\":4452:4466   */\n      add\n        /* \"#utility.yul\":4554:4558   */\n      0x00\n        /* \"#utility.yul\":4547:4552   */\n      dup4\n        /* \"#utility.yul\":4543:4559   */\n      add\n        /* \"#utility.yul\":4537:4560   */\n      mload\n        /* \"#utility.yul\":4607:4610   */\n      dup5\n        /* \"#utility.yul\":4601:4605   */\n      dup3\n        /* \"#utility.yul\":4597:4611   */\n      sub\n        /* \"#utility.yul\":4590:4594   */\n      0x00\n        /* \"#utility.yul\":4585:4588   */\n      dup7\n        /* \"#utility.yul\":4581:4595   */\n      add\n        /* \"#utility.yul\":4574:4612   */\n      mstore\n        /* \"#utility.yul\":4633:4706   */\n      tag_173\n        /* \"#utility.yul\":4701:4705   */\n      dup3\n        /* \"#utility.yul\":4687:4699   */\n      dup3\n        /* \"#utility.yul\":4633:4706   */\n      tag_82\n      jump\t// in\n    tag_173:\n        /* \"#utility.yul\":4625:4706   */\n      swap2\n      pop\n        /* \"#utility.yul\":4476:4717   */\n      pop\n        /* \"#utility.yul\":4809:4813   */\n      0x20\n        /* \"#utility.yul\":4802:4807   */\n      dup4\n        /* \"#utility.yul\":4798:4814   */\n      add\n        /* \"#utility.yul\":4792:4815   */\n      mload\n        /* \"#utility.yul\":4828:4891   */\n      tag_174\n        /* \"#utility.yul\":4885:4889   */\n      0x20\n        /* \"#utility.yul\":4880:4883   */\n      dup7\n        /* \"#utility.yul\":4876:4890   */\n      add\n        /* \"#utility.yul\":4862:4874   */\n      dup3\n        /* \"#utility.yul\":4828:4891   */\n      tag_83\n      jump\t// in\n    tag_174:\n        /* \"#utility.yul\":4727:4901   */\n      pop\n        /* \"#utility.yul\":4986:4990   */\n      0x40\n        /* \"#utility.yul\":4979:4984   */\n      dup4\n        /* \"#utility.yul\":4975:4991   */\n      add\n        /* \"#utility.yul\":4969:4992   */\n      mload\n        /* \"#utility.yul\":5005:5068   */\n      tag_175\n        /* \"#utility.yul\":5062:5066   */\n      0x40\n        /* \"#utility.yul\":5057:5060   */\n      dup7\n        /* \"#utility.yul\":5053:5067   */\n      add\n        /* \"#utility.yul\":5039:5051   */\n      dup3\n        /* \"#utility.yul\":5005:5068   */\n      tag_83\n      jump\t// in\n    tag_175:\n        /* \"#utility.yul\":4911:5078   */\n      pop\n        /* \"#utility.yul\":5165:5169   */\n      0x60\n        /* \"#utility.yul\":5158:5163   */\n      dup4\n        /* \"#utility.yul\":5154:5170   */\n      add\n        /* \"#utility.yul\":5148:5171   */\n      mload\n        /* \"#utility.yul\":5184:5247   */\n      tag_176\n        /* \"#utility.yul\":5241:5245   */\n      0x60\n        /* \"#utility.yul\":5236:5239   */\n      dup7\n        /* \"#utility.yul\":5232:5246   */\n      add\n        /* \"#utility.yul\":5218:5230   */\n      dup3\n        /* \"#utility.yul\":5184:5247   */\n      tag_83\n      jump\t// in\n    tag_176:\n        /* \"#utility.yul\":5088:5257   */\n      pop\n        /* \"#utility.yul\":5342:5346   */\n      0x80\n        /* \"#utility.yul\":5335:5340   */\n      dup4\n        /* \"#utility.yul\":5331:5347   */\n      add\n        /* \"#utility.yul\":5325:5348   */\n      mload\n        /* \"#utility.yul\":5361:5424   */\n      tag_177\n        /* \"#utility.yul\":5418:5422   */\n      0x80\n        /* \"#utility.yul\":5413:5416   */\n      dup7\n        /* \"#utility.yul\":5409:5423   */\n      add\n        /* \"#utility.yul\":5395:5407   */\n      dup3\n        /* \"#utility.yul\":5361:5424   */\n      tag_83\n      jump\t// in\n    tag_177:\n        /* \"#utility.yul\":5267:5434   */\n      pop\n        /* \"#utility.yul\":5524:5528   */\n      0xa0\n        /* \"#utility.yul\":5517:5522   */\n      dup4\n        /* \"#utility.yul\":5513:5529   */\n      add\n        /* \"#utility.yul\":5507:5530   */\n      mload\n        /* \"#utility.yul\":5543:5600   */\n      tag_178\n        /* \"#utility.yul\":5594:5598   */\n      0xa0\n        /* \"#utility.yul\":5589:5592   */\n      dup7\n        /* \"#utility.yul\":5585:5599   */\n      add\n        /* \"#utility.yul\":5571:5583   */\n      dup3\n        /* \"#utility.yul\":5543:5600   */\n      tag_84\n      jump\t// in\n    tag_178:\n        /* \"#utility.yul\":5444:5610   */\n      pop\n        /* \"#utility.yul\":5627:5631   */\n      dup1\n        /* \"#utility.yul\":5620:5631   */\n      swap2\n      pop\n        /* \"#utility.yul\":4430:5637   */\n      pop\n        /* \"#utility.yul\":4312:5637   */\n      swap3\n      swap2\n      pop\n      pop\n      jump\t// out\n        /* \"#utility.yul\":5643:6004   */\n    tag_18:\n        /* \"#utility.yul\":5780:5784   */\n      0x00\n        /* \"#utility.yul\":5818:5820   */\n      0x20\n        /* \"#utility.yul\":5807:5816   */\n      dup3\n        /* \"#utility.yul\":5803:5821   */\n      add\n        /* \"#utility.yul\":5795:5821   */\n      swap1\n      pop\n        /* \"#utility.yul\":5867:5876   */\n      dup2\n        /* \"#utility.yul\":5861:5865   */\n      dup2\n        /* \"#utility.yul\":5857:5877   */\n      sub\n        /* \"#utility.yul\":5853:5854   */\n      0x00\n        /* \"#utility.yul\":5842:5851   */\n      dup4\n        /* \"#utility.yul\":5838:5855   */\n      add\n        /* \"#utility.yul\":5831:5878   */\n      mstore\n        /* \"#utility.yul\":5895:5997   */\n      tag_180\n        /* \"#utility.yul\":5992:5996   */\n      dup2\n        /* \"#utility.yul\":5983:5989   */\n      dup5\n        /* \"#utility.yul\":5895:5997   */\n      tag_85\n      jump\t// in\n    tag_180:\n        /* \"#utility.yul\":5887:5997   */\n      swap1\n      pop\n        /* \"#utility.yul\":5643:6004   */\n      swap3\n      swap2\n      pop\n      pop\n      jump\t// out\n        /* \"#utility.yul\":6010:6128   */\n    tag_86:\n        /* \"#utility.yul\":6097:6121   */\n      tag_182\n        /* \"#utility.yul\":6115:6120   */\n      dup2\n        /* \"#utility.yul\":6097:6121   */\n      tag_69\n      jump\t// in\n    tag_182:\n        /* \"#utility.yul\":6092:6095   */\n      dup3\n        /* \"#utility.yul\":6085:6122   */\n      mstore\n        /* \"#utility.yul\":6010:6128   */\n      pop\n      pop\n      jump\t// out\n        /* \"#utility.yul\":6134:6356   */\n    tag_22:\n        /* \"#utility.yul\":6227:6231   */\n      0x00\n        /* \"#utility.yul\":6265:6267   */\n      0x20\n        /* \"#utility.yul\":6254:6263   */\n      dup3\n        /* \"#utility.yul\":6250:6268   */\n      add\n        /* \"#utility.yul\":6242:6268   */\n      swap1\n      pop\n        /* \"#utility.yul\":6278:6349   */\n      tag_184\n        /* \"#utility.yul\":6346:6347   */\n      0x00\n        /* \"#utility.yul\":6335:6344   */\n      dup4\n        /* \"#utility.yul\":6331:6348   */\n      add\n        /* \"#utility.yul\":6322:6328   */\n      dup5\n        /* \"#utility.yul\":6278:6349   */\n      tag_86\n      jump\t// in\n    tag_184:\n        /* \"#utility.yul\":6134:6356   */\n      swap3\n      swap2\n      pop\n      pop\n      jump\t// out\n        /* \"#utility.yul\":6362:6478   */\n    tag_87:\n        /* \"#utility.yul\":6432:6453   */\n      tag_186\n        /* \"#utility.yul\":6447:6452   */\n      dup2\n        /* \"#utility.yul\":6432:6453   */\n      tag_79\n      jump\t// in\n    tag_186:\n        /* \"#utility.yul\":6425:6430   */\n      dup2\n        /* \"#utility.yul\":6422:6454   */\n      eq\n        /* \"#utility.yul\":6412:6472   */\n      tag_187\n      jumpi\n        /* \"#utility.yul\":6468:6469   */\n      0x00\n        /* \"#utility.yul\":6465:6466   */\n      dup1\n        /* \"#utility.yul\":6458:6470   */\n      revert\n        /* \"#utility.yul\":6412:6472   */\n    tag_187:\n        /* \"#utility.yul\":6362:6478   */\n      pop\n      jump\t// out\n        /* \"#utility.yul\":6484:6617   */\n    tag_88:\n        /* \"#utility.yul\":6527:6532   */\n      0x00\n        /* \"#utility.yul\":6565:6571   */\n      dup2\n        /* \"#utility.yul\":6552:6572   */\n      calldataload\n        /* \"#utility.yul\":6543:6572   */\n      swap1\n      pop\n        /* \"#utility.yul\":6581:6611   */\n      tag_189\n        /* \"#utility.yul\":6605:6610   */\n      dup2\n        /* \"#utility.yul\":6581:6611   */\n      tag_87\n      jump\t// in\n    tag_189:\n        /* \"#utility.yul\":6484:6617   */\n      swap3\n      swap2\n      pop\n      pop\n      jump\t// out\n        /* \"#utility.yul\":6623:7091   */\n    tag_25:\n        /* \"#utility.yul\":6688:6694   */\n      0x00\n        /* \"#utility.yul\":6696:6702   */\n      dup1\n        /* \"#utility.yul\":6745:6747   */\n      0x40\n        /* \"#utility.yul\":6733:6742   */\n      dup4\n        /* \"#utility.yul\":6724:6731   */\n      dup6\n        /* \"#utility.yul\":6720:6743   */\n      sub\n        /* \"#utility.yul\":6716:6748   */\n      slt\n        /* \"#utility.yul\":6713:6832   */\n      iszero\n      tag_191\n      jumpi\n        /* \"#utility.yul\":6751:6830   */\n      tag_192\n      tag_66\n      jump\t// in\n    tag_192:\n        /* \"#utility.yul\":6713:6832   */\n    tag_191:\n        /* \"#utility.yul\":6871:6872   */\n      0x00\n        /* \"#utility.yul\":6896:6949   */\n      tag_193\n        /* \"#utility.yul\":6941:6948   */\n      dup6\n        /* \"#utility.yul\":6932:6938   */\n      dup3\n        /* \"#utility.yul\":6921:6930   */\n      dup7\n        /* \"#utility.yul\":6917:6939   */\n      add\n        /* \"#utility.yul\":6896:6949   */\n      tag_71\n      jump\t// in\n    tag_193:\n        /* \"#utility.yul\":6886:6949   */\n      swap3\n      pop\n        /* \"#utility.yul\":6842:6959   */\n      pop\n        /* \"#utility.yul\":6998:7000   */\n      0x20\n        /* \"#utility.yul\":7024:7074   */\n      tag_194\n        /* \"#utility.yul\":7066:7073   */\n      dup6\n        /* \"#utility.yul\":7057:7063   */\n      dup3\n        /* \"#utility.yul\":7046:7055   */\n      dup7\n        /* \"#utility.yul\":7042:7064   */\n      add\n        /* \"#utility.yul\":7024:7074   */\n      tag_88\n      jump\t// in\n    tag_194:\n        /* \"#utility.yul\":7014:7074   */\n      swap2\n      pop\n        /* \"#utility.yul\":6969:7084   */\n      pop\n        /* \"#utility.yul\":6623:7091   */\n      swap3\n      pop\n      swap3\n      swap1\n      pop\n      jump\t// out\n        /* \"#utility.yul\":7097:7214   */\n    tag_89:\n        /* \"#utility.yul\":7206:7207   */\n      0x00\n        /* \"#utility.yul\":7203:7204   */\n      dup1\n        /* \"#utility.yul\":7196:7208   */\n      revert\n        /* \"#utility.yul\":7220:7337   */\n    tag_90:\n        /* \"#utility.yul\":7329:7330   */\n      0x00\n        /* \"#utility.yul\":7326:7327   */\n      dup1\n        /* \"#utility.yul\":7319:7331   */\n      revert\n        /* \"#utility.yul\":7343:7523   */\n    tag_91:\n        /* \"#utility.yul\":7391:7468   */\n      0x4e487b7100000000000000000000000000000000000000000000000000000000\n        /* \"#utility.yul\":7388:7389   */\n      0x00\n        /* \"#utility.yul\":7381:7469   */\n      mstore\n        /* \"#utility.yul\":7488:7492   */\n      0x41\n        /* \"#utility.yul\":7485:7486   */\n      0x04\n        /* \"#utility.yul\":7478:7493   */\n      mstore\n        /* \"#utility.yul\":7512:7516   */\n      0x24\n        /* \"#utility.yul\":7509:7510   */\n      0x00\n        /* \"#utility.yul\":7502:7517   */\n      revert\n        /* \"#utility.yul\":7529:7810   */\n    tag_92:\n        /* \"#utility.yul\":7612:7639   */\n      tag_199\n        /* \"#utility.yul\":7634:7638   */\n      dup3\n        /* \"#utility.yul\":7612:7639   */\n      tag_75\n      jump\t// in\n    tag_199:\n        /* \"#utility.yul\":7604:7610   */\n      dup2\n        /* \"#utility.yul\":7600:7640   */\n      add\n        /* \"#utility.yul\":7742:7748   */\n      dup2\n        /* \"#utility.yul\":7730:7740   */\n      dup2\n        /* \"#utility.yul\":7727:7749   */\n      lt\n        /* \"#utility.yul\":7706:7724   */\n      0xffffffffffffffff\n        /* \"#utility.yul\":7694:7704   */\n      dup3\n        /* \"#utility.yul\":7691:7725   */\n      gt\n        /* \"#utility.yul\":7688:7750   */\n      or\n        /* \"#utility.yul\":7685:7773   */\n      iszero\n      tag_200\n      jumpi\n        /* \"#utility.yul\":7753:7771   */\n      tag_201\n      tag_91\n      jump\t// in\n    tag_201:\n        /* \"#utility.yul\":7685:7773   */\n    tag_200:\n        /* \"#utility.yul\":7793:7803   */\n      dup1\n        /* \"#utility.yul\":7789:7791   */\n      0x40\n        /* \"#utility.yul\":7782:7804   */\n      mstore\n        /* \"#utility.yul\":7572:7810   */\n      pop\n        /* \"#utility.yul\":7529:7810   */\n      pop\n      pop\n      jump\t// out\n        /* \"#utility.yul\":7816:7945   */\n    tag_93:\n        /* \"#utility.yul\":7850:7856   */\n      0x00\n        /* \"#utility.yul\":7877:7897   */\n      tag_203\n      tag_65\n      jump\t// in\n    tag_203:\n        /* \"#utility.yul\":7867:7897   */\n      swap1\n      pop\n        /* \"#utility.yul\":7906:7939   */\n      tag_204\n        /* \"#utility.yul\":7934:7938   */\n      dup3\n        /* \"#utility.yul\":7926:7932   */\n      dup3\n        /* \"#utility.yul\":7906:7939   */\n      tag_92\n      jump\t// in\n    tag_204:\n        /* \"#utility.yul\":7816:7945   */\n      swap2\n      swap1\n      pop\n      jump\t// out\n        /* \"#utility.yul\":7951:8259   */\n    tag_94:\n        /* \"#utility.yul\":8013:8017   */\n      0x00\n        /* \"#utility.yul\":8103:8121   */\n      0xffffffffffffffff\n        /* \"#utility.yul\":8095:8101   */\n      dup3\n        /* \"#utility.yul\":8092:8122   */\n      gt\n        /* \"#utility.yul\":8089:8145   */\n      iszero\n      tag_206\n      jumpi\n        /* \"#utility.yul\":8125:8143   */\n      tag_207\n      tag_91\n      jump\t// in\n    tag_207:\n        /* \"#utility.yul\":8089:8145   */\n    tag_206:\n        /* \"#utility.yul\":8163:8192   */\n      tag_208\n        /* \"#utility.yul\":8185:8191   */\n      dup3\n        /* \"#utility.yul\":8163:8192   */\n      tag_75\n      jump\t// in\n    tag_208:\n        /* \"#utility.yul\":8155:8192   */\n      swap1\n      pop\n        /* \"#utility.yul\":8247:8251   */\n      0x20\n        /* \"#utility.yul\":8241:8245   */\n      dup2\n        /* \"#utility.yul\":8237:8252   */\n      add\n        /* \"#utility.yul\":8229:8252   */\n      swap1\n      pop\n        /* \"#utility.yul\":7951:8259   */\n      swap2\n      swap1\n      pop\n      jump\t// out\n        /* \"#utility.yul\":8265:8411   */\n    tag_95:\n        /* \"#utility.yul\":8362:8368   */\n      dup3\n        /* \"#utility.yul\":8357:8360   */\n      dup2\n        /* \"#utility.yul\":8352:8355   */\n      dup4\n        /* \"#utility.yul\":8339:8369   */\n      calldatacopy\n        /* \"#utility.yul\":8403:8404   */\n      0x00\n        /* \"#utility.yul\":8394:8400   */\n      dup4\n        /* \"#utility.yul\":8389:8392   */\n      dup4\n        /* \"#utility.yul\":8385:8401   */\n      add\n        /* \"#utility.yul\":8378:8405   */\n      mstore\n        /* \"#utility.yul\":8265:8411   */\n      pop\n      pop\n      pop\n      jump\t// out\n        /* \"#utility.yul\":8417:8842   */\n    tag_96:\n        /* \"#utility.yul\":8495:8500   */\n      0x00\n        /* \"#utility.yul\":8520:8586   */\n      tag_211\n        /* \"#utility.yul\":8536:8585   */\n      tag_212\n        /* \"#utility.yul\":8578:8584   */\n      dup5\n        /* \"#utility.yul\":8536:8585   */\n      tag_94\n      jump\t// in\n    tag_212:\n        /* \"#utility.yul\":8520:8586   */\n      tag_93\n      jump\t// in\n    tag_211:\n        /* \"#utility.yul\":8511:8586   */\n      swap1\n      pop\n        /* \"#utility.yul\":8609:8615   */\n      dup3\n        /* \"#utility.yul\":8602:8607   */\n      dup2\n        /* \"#utility.yul\":8595:8616   */\n      mstore\n        /* \"#utility.yul\":8647:8651   */\n      0x20\n        /* \"#utility.yul\":8640:8645   */\n      dup2\n        /* \"#utility.yul\":8636:8652   */\n      add\n        /* \"#utility.yul\":8685:8688   */\n      dup5\n        /* \"#utility.yul\":8676:8682   */\n      dup5\n        /* \"#utility.yul\":8671:8674   */\n      dup5\n        /* \"#utility.yul\":8667:8683   */\n      add\n        /* \"#utility.yul\":8664:8689   */\n      gt\n        /* \"#utility.yul\":8661:8773   */\n      iszero\n      tag_213\n      jumpi\n        /* \"#utility.yul\":8692:8771   */\n      tag_214\n      tag_90\n      jump\t// in\n    tag_214:\n        /* \"#utility.yul\":8661:8773   */\n    tag_213:\n        /* \"#utility.yul\":8782:8836   */\n      tag_215\n        /* \"#utility.yul\":8829:8835   */\n      dup5\n        /* \"#utility.yul\":8824:8827   */\n      dup3\n        /* \"#utility.yul\":8819:8822   */\n      dup6\n        /* \"#utility.yul\":8782:8836   */\n      tag_95\n      jump\t// in\n    tag_215:\n        /* \"#utility.yul\":8501:8842   */\n      pop\n        /* \"#utility.yul\":8417:8842   */\n      swap4\n      swap3\n      pop\n      pop\n      pop\n      jump\t// out\n        /* \"#utility.yul\":8862:9202   */\n    tag_97:\n        /* \"#utility.yul\":8918:8923   */\n      0x00\n        /* \"#utility.yul\":8967:8970   */\n      dup3\n        /* \"#utility.yul\":8960:8964   */\n      0x1f\n        /* \"#utility.yul\":8952:8958   */\n      dup4\n        /* \"#utility.yul\":8948:8965   */\n      add\n        /* \"#utility.yul\":8944:8971   */\n      slt\n        /* \"#utility.yul\":8934:9056   */\n      tag_217\n      jumpi\n        /* \"#utility.yul\":8975:9054   */\n      tag_218\n      tag_89\n      jump\t// in\n    tag_218:\n        /* \"#utility.yul\":8934:9056   */\n    tag_217:\n        /* \"#utility.yul\":9092:9098   */\n      dup2\n        /* \"#utility.yul\":9079:9099   */\n      calldataload\n        /* \"#utility.yul\":9117:9196   */\n      tag_219\n        /* \"#utility.yul\":9192:9195   */\n      dup5\n        /* \"#utility.yul\":9184:9190   */\n      dup3\n        /* \"#utility.yul\":9177:9181   */\n      0x20\n        /* \"#utility.yul\":9169:9175   */\n      dup7\n        /* \"#utility.yul\":9165:9182   */\n      add\n        /* \"#utility.yul\":9117:9196   */\n      tag_96\n      jump\t// in\n    tag_219:\n        /* \"#utility.yul\":9108:9196   */\n      swap2\n      pop\n        /* \"#utility.yul\":8924:9202   */\n      pop\n        /* \"#utility.yul\":8862:9202   */\n      swap3\n      swap2\n      pop\n      pop\n      jump\t// out\n        /* \"#utility.yul\":9208:9330   */\n    tag_98:\n        /* \"#utility.yul\":9281:9305   */\n      tag_221\n        /* \"#utility.yul\":9299:9304   */\n      dup2\n        /* \"#utility.yul\":9281:9305   */\n      tag_77\n      jump\t// in\n    tag_221:\n        /* \"#utility.yul\":9274:9279   */\n      dup2\n        /* \"#utility.yul\":9271:9306   */\n      eq\n        /* \"#utility.yul\":9261:9324   */\n      tag_222\n      jumpi\n        /* \"#utility.yul\":9320:9321   */\n      0x00\n        /* \"#utility.yul\":9317:9318   */\n      dup1\n        /* \"#utility.yul\":9310:9322   */\n      revert\n        /* \"#utility.yul\":9261:9324   */\n    tag_222:\n        /* \"#utility.yul\":9208:9330   */\n      pop\n      jump\t// out\n        /* \"#utility.yul\":9336:9475   */\n    tag_99:\n        /* \"#utility.yul\":9382:9387   */\n      0x00\n        /* \"#utility.yul\":9420:9426   */\n      dup2\n        /* \"#utility.yul\":9407:9427   */\n      calldataload\n        /* \"#utility.yul\":9398:9427   */\n      swap1\n      pop\n        /* \"#utility.yul\":9436:9469   */\n      tag_224\n        /* \"#utility.yul\":9463:9468   */\n      dup2\n        /* \"#utility.yul\":9436:9469   */\n      tag_98\n      jump\t// in\n    tag_224:\n        /* \"#utility.yul\":9336:9475   */\n      swap3\n      swap2\n      pop\n      pop\n      jump\t// out\n        /* \"#utility.yul\":9481:10718   */\n    tag_29:\n        /* \"#utility.yul\":9595:9601   */\n      0x00\n        /* \"#utility.yul\":9603:9609   */\n      dup1\n        /* \"#utility.yul\":9611:9617   */\n      0x00\n        /* \"#utility.yul\":9619:9625   */\n      dup1\n        /* \"#utility.yul\":9627:9633   */\n      0x00\n        /* \"#utility.yul\":9635:9641   */\n      dup1\n        /* \"#utility.yul\":9684:9687   */\n      0xc0\n        /* \"#utility.yul\":9672:9681   */\n      dup8\n        /* \"#utility.yul\":9663:9670   */\n      dup10\n        /* \"#utility.yul\":9659:9682   */\n      sub\n        /* \"#utility.yul\":9655:9688   */\n      slt\n        /* \"#utility.yul\":9652:9772   */\n      iszero\n      tag_226\n      jumpi\n        /* \"#utility.yul\":9691:9770   */\n      tag_227\n      tag_66\n      jump\t// in\n    tag_227:\n        /* \"#utility.yul\":9652:9772   */\n    tag_226:\n        /* \"#utility.yul\":9811:9812   */\n      0x00\n        /* \"#utility.yul\":9836:9889   */\n      tag_228\n        /* \"#utility.yul\":9881:9888   */\n      dup10\n        /* \"#utility.yul\":9872:9878   */\n      dup3\n        /* \"#utility.yul\":9861:9870   */\n      dup11\n        /* \"#utility.yul\":9857:9879   */\n      add\n        /* \"#utility.yul\":9836:9889   */\n      tag_71\n      jump\t// in\n    tag_228:\n        /* \"#utility.yul\":9826:9889   */\n      swap7\n      pop\n        /* \"#utility.yul\":9782:9899   */\n      pop\n        /* \"#utility.yul\":9966:9968   */\n      0x20\n        /* \"#utility.yul\":9955:9964   */\n      dup8\n        /* \"#utility.yul\":9951:9969   */\n      add\n        /* \"#utility.yul\":9938:9970   */\n      calldataload\n        /* \"#utility.yul\":9997:10015   */\n      0xffffffffffffffff\n        /* \"#utility.yul\":9989:9995   */\n      dup2\n        /* \"#utility.yul\":9986:10016   */\n      gt\n        /* \"#utility.yul\":9983:10100   */\n      iszero\n      tag_229\n      jumpi\n        /* \"#utility.yul\":10019:10098   */\n      tag_230\n      tag_67\n      jump\t// in\n    tag_230:\n        /* \"#utility.yul\":9983:10100   */\n    tag_229:\n        /* \"#utility.yul\":10124:10187   */\n      tag_231\n        /* \"#utility.yul\":10179:10186   */\n      dup10\n        /* \"#utility.yul\":10170:10176   */\n      dup3\n        /* \"#utility.yul\":10159:10168   */\n      dup11\n        /* \"#utility.yul\":10155:10177   */\n      add\n        /* \"#utility.yul\":10124:10187   */\n      tag_97\n      jump\t// in\n    tag_231:\n        /* \"#utility.yul\":10114:10187   */\n      swap6\n      pop\n        /* \"#utility.yul\":9909:10197   */\n      pop\n        /* \"#utility.yul\":10236:10238   */\n      0x40\n        /* \"#utility.yul\":10262:10315   */\n      tag_232\n        /* \"#utility.yul\":10307:10314   */\n      dup10\n        /* \"#utility.yul\":10298:10304   */\n      dup3\n        /* \"#utility.yul\":10287:10296   */\n      dup11\n        /* \"#utility.yul\":10283:10305   */\n      add\n        /* \"#utility.yul\":10262:10315   */\n      tag_99\n      jump\t// in\n    tag_232:\n        /* \"#utility.yul\":10252:10315   */\n      swap5\n      pop\n        /* \"#utility.yul\":10207:10325   */\n      pop\n        /* \"#utility.yul\":10364:10366   */\n      0x60\n        /* \"#utility.yul\":10390:10443   */\n      tag_233\n        /* \"#utility.yul\":10435:10442   */\n      dup10\n        /* \"#utility.yul\":10426:10432   */\n      dup3\n        /* \"#utility.yul\":10415:10424   */\n      dup11\n        /* \"#utility.yul\":10411:10433   */\n      add\n        /* \"#utility.yul\":10390:10443   */\n      tag_99\n      jump\t// in\n    tag_233:\n        /* \"#utility.yul\":10380:10443   */\n      swap4\n      pop\n        /* \"#utility.yul\":10335:10453   */\n      pop\n        /* \"#utility.yul\":10492:10495   */\n      0x80\n        /* \"#utility.yul\":10519:10572   */\n      tag_234\n        /* \"#utility.yul\":10564:10571   */\n      dup10\n        /* \"#utility.yul\":10555:10561   */\n      dup3\n        /* \"#utility.yul\":10544:10553   */\n      dup11\n        /* \"#utility.yul\":10540:10562   */\n      add\n        /* \"#utility.yul\":10519:10572   */\n      tag_99\n      jump\t// in\n    tag_234:\n        /* \"#utility.yul\":10509:10572   */\n      swap3\n      pop\n        /* \"#utility.yul\":10463:10582   */\n      pop\n        /* \"#utility.yul\":10621:10624   */\n      0xa0\n        /* \"#utility.yul\":10648:10701   */\n      tag_235\n        /* \"#utility.yul\":10693:10700   */\n      dup10\n        /* \"#utility.yul\":10684:10690   */\n      dup3\n        /* \"#utility.yul\":10673:10682   */\n      dup11\n        /* \"#utility.yul\":10669:10691   */\n      add\n        /* \"#utility.yul\":10648:10701   */\n      tag_99\n      jump\t// in\n    tag_235:\n        /* \"#utility.yul\":10638:10701   */\n      swap2\n      pop\n        /* \"#utility.yul\":10592:10711   */\n      pop\n        /* \"#utility.yul\":9481:10718   */\n      swap3\n      swap6\n      pop\n      swap3\n      swap6\n      pop\n      swap3\n      swap6\n      jump\t// out\n        /* \"#utility.yul\":10724:10904   */\n    tag_100:\n        /* \"#utility.yul\":10772:10849   */\n      0x4e487b7100000000000000000000000000000000000000000000000000000000\n        /* \"#utility.yul\":10769:10770   */\n      0x00\n        /* \"#utility.yul\":10762:10850   */\n      mstore\n        /* \"#utility.yul\":10869:10873   */\n      0x22\n        /* \"#utility.yul\":10866:10867   */\n      0x04\n        /* \"#utility.yul\":10859:10874   */\n      mstore\n        /* \"#utility.yul\":10893:10897   */\n      0x24\n        /* \"#utility.yul\":10890:10891   */\n      0x00\n        /* \"#utility.yul\":10883:10898   */\n      revert\n        /* \"#utility.yul\":10910:11230   */\n    tag_32:\n        /* \"#utility.yul\":10954:10960   */\n      0x00\n        /* \"#utility.yul\":10991:10992   */\n      0x02\n        /* \"#utility.yul\":10985:10989   */\n      dup3\n        /* \"#utility.yul\":10981:10993   */\n      div\n        /* \"#utility.yul\":10971:10993   */\n      swap1\n      pop\n        /* \"#utility.yul\":11038:11039   */\n      0x01\n        /* \"#utility.yul\":11032:11036   */\n      dup3\n        /* \"#utility.yul\":11028:11040   */\n      and\n        /* \"#utility.yul\":11059:11077   */\n      dup1\n        /* \"#utility.yul\":11049:11130   */\n      tag_238\n      jumpi\n        /* \"#utility.yul\":11115:11119   */\n      0x7f\n        /* \"#utility.yul\":11107:11113   */\n      dup3\n        /* \"#utility.yul\":11103:11120   */\n      and\n        /* \"#utility.yul\":11093:11120   */\n      swap2\n      pop\n        /* \"#utility.yul\":11049:11130   */\n    tag_238:\n        /* \"#utility.yul\":11177:11179   */\n      0x20\n        /* \"#utility.yul\":11169:11175   */\n      dup3\n        /* \"#utility.yul\":11166:11180   */\n      lt\n        /* \"#utility.yul\":11146:11164   */\n      dup2\n        /* \"#utility.yul\":11143:11181   */\n      sub\n        /* \"#utility.yul\":11140:11224   */\n      tag_239\n      jumpi\n        /* \"#utility.yul\":11196:11214   */\n      tag_240\n      tag_100\n      jump\t// in\n    tag_240:\n        /* \"#utility.yul\":11140:11224   */\n    tag_239:\n        /* \"#utility.yul\":10961:11230   */\n      pop\n        /* \"#utility.yul\":10910:11230   */\n      swap2\n      swap1\n      pop\n      jump\t// out\n        /* \"#utility.yul\":11236:11457   */\n    tag_101:\n        /* \"#utility.yul\":11376:11410   */\n      0x506f6c696379206e6f74207265676973746572656420666f7220746865207573\n        /* \"#utility.yul\":11372:11373   */\n      0x00\n        /* \"#utility.yul\":11364:11370   */\n      dup3\n        /* \"#utility.yul\":11360:11374   */\n      add\n        /* \"#utility.yul\":11353:11411   */\n      mstore\n        /* \"#utility.yul\":11445:11449   */\n      0x6572000000000000000000000000000000000000000000000000000000000000\n        /* \"#utility.yul\":11440:11442   */\n      0x20\n        /* \"#utility.yul\":11432:11438   */\n      dup3\n        /* \"#utility.yul\":11428:11443   */\n      add\n        /* \"#utility.yul\":11421:11450   */\n      mstore\n        /* \"#utility.yul\":11236:11457   */\n      pop\n      jump\t// out\n        /* \"#utility.yul\":11463:11829   */\n    tag_102:\n        /* \"#utility.yul\":11605:11608   */\n      0x00\n        /* \"#utility.yul\":11626:11693   */\n      tag_243\n        /* \"#utility.yul\":11690:11692   */\n      0x22\n        /* \"#utility.yul\":11685:11688   */\n      dup4\n        /* \"#utility.yul\":11626:11693   */\n      tag_73\n      jump\t// in\n    tag_243:\n        /* \"#utility.yul\":11619:11693   */\n      swap2\n      pop\n        /* \"#utility.yul\":11702:11795   */\n      tag_244\n        /* \"#utility.yul\":11791:11794   */\n      dup3\n        /* \"#utility.yul\":11702:11795   */\n      tag_101\n      jump\t// in\n    tag_244:\n        /* \"#utility.yul\":11820:11822   */\n      0x40\n        /* \"#utility.yul\":11815:11818   */\n      dup3\n        /* \"#utility.yul\":11811:11823   */\n      add\n        /* \"#utility.yul\":11804:11823   */\n      swap1\n      pop\n        /* \"#utility.yul\":11463:11829   */\n      swap2\n      swap1\n      pop\n      jump\t// out\n        /* \"#utility.yul\":11835:12254   */\n    tag_42:\n        /* \"#utility.yul\":12001:12005   */\n      0x00\n        /* \"#utility.yul\":12039:12041   */\n      0x20\n        /* \"#utility.yul\":12028:12037   */\n      dup3\n        /* \"#utility.yul\":12024:12042   */\n      add\n        /* \"#utility.yul\":12016:12042   */\n      swap1\n      pop\n        /* \"#utility.yul\":12088:12097   */\n      dup2\n        /* \"#utility.yul\":12082:12086   */\n      dup2\n        /* \"#utility.yul\":12078:12098   */\n      sub\n        /* \"#utility.yul\":12074:12075   */\n      0x00\n        /* \"#utility.yul\":12063:12072   */\n      dup4\n        /* \"#utility.yul\":12059:12076   */\n      add\n        /* \"#utility.yul\":12052:12099   */\n      mstore\n        /* \"#utility.yul\":12116:12247   */\n      tag_246\n        /* \"#utility.yul\":12242:12246   */\n      dup2\n        /* \"#utility.yul\":12116:12247   */\n      tag_102\n      jump\t// in\n    tag_246:\n        /* \"#utility.yul\":12108:12247   */\n      swap1\n      pop\n        /* \"#utility.yul\":11835:12254   */\n      swap2\n      swap1\n      pop\n      jump\t// out\n        /* \"#utility.yul\":12260:12485   */\n    tag_103:\n        /* \"#utility.yul\":12400:12434   */\n      0x4f6e6c7920746865206f776e65722063616e20706572666f726d207468697320\n        /* \"#utility.yul\":12396:12397   */\n      0x00\n        /* \"#utility.yul\":12388:12394   */\n      dup3\n        /* \"#utility.yul\":12384:12398   */\n      add\n        /* \"#utility.yul\":12377:12435   */\n      mstore\n        /* \"#utility.yul\":12469:12477   */\n      0x616374696f6e0000000000000000000000000000000000000000000000000000\n        /* \"#utility.yul\":12464:12466   */\n      0x20\n        /* \"#utility.yul\":12456:12462   */\n      dup3\n        /* \"#utility.yul\":12452:12467   */\n      add\n        /* \"#utility.yul\":12445:12478   */\n      mstore\n        /* \"#utility.yul\":12260:12485   */\n      pop\n      jump\t// out\n        /* \"#utility.yul\":12491:12857   */\n    tag_104:\n        /* \"#utility.yul\":12633:12636   */\n      0x00\n        /* \"#utility.yul\":12654:12721   */\n      tag_249\n        /* \"#utility.yul\":12718:12720   */\n      0x26\n        /* \"#utility.yul\":12713:12716   */\n      dup4\n        /* \"#utility.yul\":12654:12721   */\n      tag_73\n      jump\t// in\n    tag_249:\n        /* \"#utility.yul\":12647:12721   */\n      swap2\n      pop\n        /* \"#utility.yul\":12730:12823   */\n      tag_250\n        /* \"#utility.yul\":12819:12822   */\n      dup3\n        /* \"#utility.yul\":12730:12823   */\n      tag_103\n      jump\t// in\n    tag_250:\n        /* \"#utility.yul\":12848:12850   */\n      0x40\n        /* \"#utility.yul\":12843:12846   */\n      dup3\n        /* \"#utility.yul\":12839:12851   */\n      add\n        /* \"#utility.yul\":12832:12851   */\n      swap1\n      pop\n        /* \"#utility.yul\":12491:12857   */\n      swap2\n      swap1\n      pop\n      jump\t// out\n        /* \"#utility.yul\":12863:13282   */\n    tag_51:\n        /* \"#utility.yul\":13029:13033   */\n      0x00\n        /* \"#utility.yul\":13067:13069   */\n      0x20\n        /* \"#utility.yul\":13056:13065   */\n      dup3\n        /* \"#utility.yul\":13052:13070   */\n      add\n        /* \"#utility.yul\":13044:13070   */\n      swap1\n      pop\n        /* \"#utility.yul\":13116:13125   */\n      dup2\n        /* \"#utility.yul\":13110:13114   */\n      dup2\n        /* \"#utility.yul\":13106:13126   */\n      sub\n        /* \"#utility.yul\":13102:13103   */\n      0x00\n        /* \"#utility.yul\":13091:13100   */\n      dup4\n        /* \"#utility.yul\":13087:13104   */\n      add\n        /* \"#utility.yul\":13080:13127   */\n      mstore\n        /* \"#utility.yul\":13144:13275   */\n      tag_252\n        /* \"#utility.yul\":13270:13274   */\n      dup2\n        /* \"#utility.yul\":13144:13275   */\n      tag_104\n      jump\t// in\n    tag_252:\n        /* \"#utility.yul\":13136:13275   */\n      swap1\n      pop\n        /* \"#utility.yul\":12863:13282   */\n      swap2\n      swap1\n      pop\n      jump\t// out\n        /* \"#utility.yul\":13288:13429   */\n    tag_105:\n        /* \"#utility.yul\":13337:13341   */\n      0x00\n        /* \"#utility.yul\":13360:13363   */\n      dup2\n        /* \"#utility.yul\":13352:13363   */\n      swap1\n      pop\n        /* \"#utility.yul\":13383:13386   */\n      dup2\n        /* \"#utility.yul\":13380:13381   */\n      0x00\n        /* \"#utility.yul\":13373:13387   */\n      mstore\n        /* \"#utility.yul\":13417:13421   */\n      0x20\n        /* \"#utility.yul\":13414:13415   */\n      0x00\n        /* \"#utility.yul\":13404:13422   */\n      keccak256\n        /* \"#utility.yul\":13396:13422   */\n      swap1\n      pop\n        /* \"#utility.yul\":13288:13429   */\n      swap2\n      swap1\n      pop\n      jump\t// out\n        /* \"#utility.yul\":13459:14290   */\n    tag_106:\n        /* \"#utility.yul\":13544:13547   */\n      0x00\n        /* \"#utility.yul\":13581:13586   */\n      dup2\n        /* \"#utility.yul\":13575:13587   */\n      sload\n        /* \"#utility.yul\":13610:13646   */\n      tag_255\n        /* \"#utility.yul\":13636:13645   */\n      dup2\n        /* \"#utility.yul\":13610:13646   */\n      tag_32\n      jump\t// in\n    tag_255:\n        /* \"#utility.yul\":13662:13733   */\n      tag_256\n        /* \"#utility.yul\":13726:13732   */\n      dup2\n        /* \"#utility.yul\":13721:13724   */\n      dup7\n        /* \"#utility.yul\":13662:13733   */\n      tag_73\n      jump\t// in\n    tag_256:\n        /* \"#utility.yul\":13655:13733   */\n      swap5\n      pop\n        /* \"#utility.yul\":13764:13765   */\n      0x01\n        /* \"#utility.yul\":13753:13762   */\n      dup3\n        /* \"#utility.yul\":13749:13766   */\n      and\n        /* \"#utility.yul\":13780:13781   */\n      0x00\n        /* \"#utility.yul\":13775:13939   */\n      dup2\n      eq\n      tag_258\n      jumpi\n        /* \"#utility.yul\":13953:13954   */\n      0x01\n        /* \"#utility.yul\":13948:14284   */\n      dup2\n      eq\n      tag_259\n      jumpi\n        /* \"#utility.yul\":13742:14284   */\n      jump(tag_257)\n        /* \"#utility.yul\":13775:13939   */\n    tag_258:\n        /* \"#utility.yul\":13859:13863   */\n      0xff\n        /* \"#utility.yul\":13855:13864   */\n      not\n        /* \"#utility.yul\":13844:13853   */\n      dup4\n        /* \"#utility.yul\":13840:13865   */\n      and\n        /* \"#utility.yul\":13835:13838   */\n      dup7\n        /* \"#utility.yul\":13828:13866   */\n      mstore\n        /* \"#utility.yul\":13919:13925   */\n      dup2\n        /* \"#utility.yul\":13912:13926   */\n      iszero\n        /* \"#utility.yul\":13905:13927   */\n      iszero\n        /* \"#utility.yul\":13899:13903   */\n      0x20\n        /* \"#utility.yul\":13895:13928   */\n      mul\n        /* \"#utility.yul\":13890:13893   */\n      dup7\n        /* \"#utility.yul\":13886:13929   */\n      add\n        /* \"#utility.yul\":13879:13929   */\n      swap4\n      pop\n        /* \"#utility.yul\":13775:13939   */\n      jump(tag_257)\n        /* \"#utility.yul\":13948:14284   */\n    tag_259:\n        /* \"#utility.yul\":14015:14053   */\n      tag_260\n        /* \"#utility.yul\":14047:14052   */\n      dup6\n        /* \"#utility.yul\":14015:14053   */\n      tag_105\n      jump\t// in\n    tag_260:\n        /* \"#utility.yul\":14075:14076   */\n      0x00\n        /* \"#utility.yul\":14089:14243   */\n    tag_261:\n        /* \"#utility.yul\":14103:14109   */\n      dup4\n        /* \"#utility.yul\":14100:14101   */\n      dup2\n        /* \"#utility.yul\":14097:14110   */\n      lt\n        /* \"#utility.yul\":14089:14243   */\n      iszero\n      tag_263\n      jumpi\n        /* \"#utility.yul\":14177:14184   */\n      dup2\n        /* \"#utility.yul\":14171:14185   */\n      sload\n        /* \"#utility.yul\":14167:14168   */\n      dup2\n        /* \"#utility.yul\":14162:14165   */\n      dup10\n        /* \"#utility.yul\":14158:14169   */\n      add\n        /* \"#utility.yul\":14151:14186   */\n      mstore\n        /* \"#utility.yul\":14227:14228   */\n      0x01\n        /* \"#utility.yul\":14218:14225   */\n      dup3\n        /* \"#utility.yul\":14214:14229   */\n      add\n        /* \"#utility.yul\":14203:14229   */\n      swap2\n      pop\n        /* \"#utility.yul\":14125:14129   */\n      0x20\n        /* \"#utility.yul\":14122:14123   */\n      dup2\n        /* \"#utility.yul\":14118:14130   */\n      add\n        /* \"#utility.yul\":14113:14130   */\n      swap1\n      pop\n        /* \"#utility.yul\":14089:14243   */\n      jump(tag_261)\n    tag_263:\n        /* \"#utility.yul\":14272:14273   */\n      dup1\n        /* \"#utility.yul\":14267:14270   */\n      dup9\n        /* \"#utility.yul\":14263:14274   */\n      add\n        /* \"#utility.yul\":14256:14274   */\n      swap6\n      pop\n        /* \"#utility.yul\":13955:14284   */\n      pop\n      pop\n        /* \"#utility.yul\":13742:14284   */\n    tag_257:\n      pop\n        /* \"#utility.yul\":13548:14290   */\n      pop\n      pop\n        /* \"#utility.yul\":13459:14290   */\n      swap3\n      swap2\n      pop\n      pop\n      jump\t// out\n        /* \"#utility.yul\":14296:14701   */\n    tag_56:\n        /* \"#utility.yul\":14428:14432   */\n      0x00\n        /* \"#utility.yul\":14466:14468   */\n      0x40\n        /* \"#utility.yul\":14455:14464   */\n      dup3\n        /* \"#utility.yul\":14451:14469   */\n      add\n        /* \"#utility.yul\":14443:14469   */\n      swap1\n      pop\n        /* \"#utility.yul\":14515:14524   */\n      dup2\n        /* \"#utility.yul\":14509:14513   */\n      dup2\n        /* \"#utility.yul\":14505:14525   */\n      sub\n        /* \"#utility.yul\":14501:14502   */\n      0x00\n        /* \"#utility.yul\":14490:14499   */\n      dup4\n        /* \"#utility.yul\":14486:14503   */\n      add\n        /* \"#utility.yul\":14479:14526   */\n      mstore\n        /* \"#utility.yul\":14543:14618   */\n      tag_265\n        /* \"#utility.yul\":14613:14617   */\n      dup2\n        /* \"#utility.yul\":14604:14610   */\n      dup6\n        /* \"#utility.yul\":14543:14618   */\n      tag_106\n      jump\t// in\n    tag_265:\n        /* \"#utility.yul\":14535:14618   */\n      swap1\n      pop\n        /* \"#utility.yul\":14628:14694   */\n      tag_266\n        /* \"#utility.yul\":14690:14692   */\n      0x20\n        /* \"#utility.yul\":14679:14688   */\n      dup4\n        /* \"#utility.yul\":14675:14693   */\n      add\n        /* \"#utility.yul\":14666:14672   */\n      dup5\n        /* \"#utility.yul\":14628:14694   */\n      tag_80\n      jump\t// in\n    tag_266:\n        /* \"#utility.yul\":14296:14701   */\n      swap4\n      swap3\n      pop\n      pop\n      pop\n      jump\t// out\n        /* \"#utility.yul\":14707:14800   */\n    tag_107:\n        /* \"#utility.yul\":14744:14750   */\n      0x00\n        /* \"#utility.yul\":14791:14793   */\n      0x20\n        /* \"#utility.yul\":14786:14788   */\n      0x1f\n        /* \"#utility.yul\":14779:14784   */\n      dup4\n        /* \"#utility.yul\":14775:14789   */\n      add\n        /* \"#utility.yul\":14771:14794   */\n      div\n        /* \"#utility.yul\":14761:14794   */\n      swap1\n      pop\n        /* \"#utility.yul\":14707:14800   */\n      swap2\n      swap1\n      pop\n      jump\t// out\n        /* \"#utility.yul\":14806:14913   */\n    tag_108:\n        /* \"#utility.yul\":14850:14858   */\n      0x00\n        /* \"#utility.yul\":14900:14905   */\n      dup3\n        /* \"#utility.yul\":14894:14898   */\n      dup3\n        /* \"#utility.yul\":14890:14906   */\n      shl\n        /* \"#utility.yul\":14869:14906   */\n      swap1\n      pop\n        /* \"#utility.yul\":14806:14913   */\n      swap3\n      swap2\n      pop\n      pop\n      jump\t// out\n        /* \"#utility.yul\":14919:15312   */\n    tag_109:\n        /* \"#utility.yul\":14988:14994   */\n      0x00\n        /* \"#utility.yul\":15038:15039   */\n      0x08\n        /* \"#utility.yul\":15026:15036   */\n      dup4\n        /* \"#utility.yul\":15022:15040   */\n      mul\n        /* \"#utility.yul\":15061:15158   */\n      tag_270\n        /* \"#utility.yul\":15091:15157   */\n      0xffffffffffffffffffffffffffffffffffffffffffffffffffffffffffffffff\n        /* \"#utility.yul\":15080:15089   */\n      dup3\n        /* \"#utility.yul\":15061:15158   */\n      tag_108\n      jump\t// in\n    tag_270:\n        /* \"#utility.yul\":15179:15218   */\n      tag_271\n        /* \"#utility.yul\":15209:15217   */\n      dup7\n        /* \"#utility.yul\":15198:15207   */\n      dup4\n        /* \"#utility.yul\":15179:15218   */\n      tag_108\n      jump\t// in\n    tag_271:\n        /* \"#utility.yul\":15167:15218   */\n      swap6\n      pop\n        /* \"#utility.yul\":15251:15255   */\n      dup1\n        /* \"#utility.yul\":15247:15256   */\n      not\n        /* \"#utility.yul\":15240:15245   */\n      dup5\n        /* \"#utility.yul\":15236:15257   */\n      and\n        /* \"#utility.yul\":15227:15257   */\n      swap4\n      pop\n        /* \"#utility.yul\":15300:15304   */\n      dup1\n        /* \"#utility.yul\":15290:15298   */\n      dup7\n        /* \"#utility.yul\":15286:15305   */\n      and\n        /* \"#utility.yul\":15279:15284   */\n      dup5\n        /* \"#utility.yul\":15276:15306   */\n      or\n        /* \"#utility.yul\":15266:15306   */\n      swap3\n      pop\n        /* \"#utility.yul\":14995:15312   */\n      pop\n      pop\n        /* \"#utility.yul\":14919:15312   */\n      swap4\n      swap3\n      pop\n      pop\n      pop\n      jump\t// out\n        /* \"#utility.yul\":15318:15378   */\n    tag_110:\n        /* \"#utility.yul\":15346:15349   */\n      0x00\n        /* \"#utility.yul\":15367:15372   */\n      dup2\n        /* \"#utility.yul\":15360:15372   */\n      swap1\n      pop\n        /* \"#utility.yul\":15318:15378   */\n      swap2\n      swap1\n      pop\n      jump\t// out\n        /* \"#utility.yul\":15384:15526   */\n    tag_111:\n        /* \"#utility.yul\":15434:15443   */\n      0x00\n        /* \"#utility.yul\":15467:15520   */\n      tag_274\n        /* \"#utility.yul\":15485:15519   */\n      tag_275\n        /* \"#utility.yul\":15494:15518   */\n      tag_276\n        /* \"#utility.yul\":15512:15517   */\n      dup5\n        /* \"#utility.yul\":15494:15518   */\n      tag_77\n      jump\t// in\n    tag_276:\n        /* \"#utility.yul\":15485:15519   */\n      tag_110\n      jump\t// in\n    tag_275:\n        /* \"#utility.yul\":15467:15520   */\n      tag_77\n      jump\t// in\n    tag_274:\n        /* \"#utility.yul\":15454:15520   */\n      swap1\n      pop\n        /* \"#utility.yul\":15384:15526   */\n      swap2\n      swap1\n      pop\n      jump\t// out\n        /* \"#utility.yul\":15532:15607   */\n    tag_112:\n        /* \"#utility.yul\":15575:15578   */\n      0x00\n        /* \"#utility.yul\":15596:15601   */\n      dup2\n        /* \"#utility.yul\":15589:15601   */\n      swap1\n      pop\n        /* \"#utility.yul\":15532:15607   */\n      swap2\n      swap1\n      pop\n      jump\t// out\n        /* \"#utility.yul\":15613:15882   */\n    tag_113:\n        /* \"#utility.yul\":15723:15762   */\n      tag_279\n        /* \"#utility.yul\":15754:15761   */\n      dup4\n        /* \"#utility.yul\":15723:15762   */\n      tag_111\n      jump\t// in\n    tag_279:\n        /* \"#utility.yul\":15784:15875   */\n      tag_280\n        /* \"#utility.yul\":15833:15874   */\n      tag_281\n        /* \"#utility.yul\":15857:15873   */\n      dup3\n        /* \"#utility.yul\":15833:15874   */\n      tag_112\n      jump\t// in\n    tag_281:\n        /* \"#utility.yul\":15825:15831   */\n      dup5\n        /* \"#utility.yul\":15818:15822   */\n      dup5\n        /* \"#utility.yul\":15812:15823   */\n      sload\n        /* \"#utility.yul\":15784:15875   */\n      tag_109\n      jump\t// in\n    tag_280:\n        /* \"#utility.yul\":15778:15782   */\n      dup3\n        /* \"#utility.yul\":15771:15876   */\n      sstore\n        /* \"#utility.yul\":15689:15882   */\n      pop\n        /* \"#utility.yul\":15613:15882   */\n      pop\n      pop\n      pop\n      jump\t// out\n        /* \"#utility.yul\":15888:15961   */\n    tag_114:\n        /* \"#utility.yul\":15933:15936   */\n      0x00\n        /* \"#utility.yul\":15888:15961   */\n      swap1\n      jump\t// out\n        /* \"#utility.yul\":15967:16156   */\n    tag_115:\n        /* \"#utility.yul\":16044:16076   */\n      tag_284\n      tag_114\n      jump\t// in\n    tag_284:\n        /* \"#utility.yul\":16085:16150   */\n      tag_285\n        /* \"#utility.yul\":16143:16149   */\n      dup2\n        /* \"#utility.yul\":16135:16141   */\n      dup5\n        /* \"#utility.yul\":16129:16133   */\n      dup5\n        /* \"#utility.yul\":16085:16150   */\n      tag_113\n      jump\t// in\n    tag_285:\n        /* \"#utility.yul\":16020:16156   */\n      pop\n        /* \"#utility.yul\":15967:16156   */\n      pop\n      pop\n      jump\t// out\n        /* \"#utility.yul\":16162:16348   */\n    tag_116:\n        /* \"#utility.yul\":16222:16342   */\n    tag_287:\n        /* \"#utility.yul\":16239:16242   */\n      dup2\n        /* \"#utility.yul\":16232:16237   */\n      dup2\n        /* \"#utility.yul\":16229:16243   */\n      lt\n        /* \"#utility.yul\":16222:16342   */\n      iszero\n      tag_289\n      jumpi\n        /* \"#utility.yul\":16293:16332   */\n      tag_290\n        /* \"#utility.yul\":16330:16331   */\n      0x00\n        /* \"#utility.yul\":16323:16328   */\n      dup3\n        /* \"#utility.yul\":16293:16332   */\n      tag_115\n      jump\t// in\n    tag_290:\n        /* \"#utility.yul\":16266:16267   */\n      0x01\n        /* \"#utility.yul\":16259:16264   */\n      dup2\n        /* \"#utility.yul\":16255:16268   */\n      add\n        /* \"#utility.yul\":16246:16268   */\n      swap1\n      pop\n        /* \"#utility.yul\":16222:16342   */\n      jump(tag_287)\n    tag_289:\n        /* \"#utility.yul\":16162:16348   */\n      pop\n      pop\n      jump\t// out\n        /* \"#utility.yul\":16354:16897   */\n    tag_117:\n        /* \"#utility.yul\":16455:16457   */\n      0x1f\n        /* \"#utility.yul\":16450:16453   */\n      dup3\n        /* \"#utility.yul\":16447:16458   */\n      gt\n        /* \"#utility.yul\":16444:16890   */\n      iszero\n      tag_292\n      jumpi\n        /* \"#utility.yul\":16489:16527   */\n      tag_293\n        /* \"#utility.yul\":16521:16526   */\n      dup2\n        /* \"#utility.yul\":16489:16527   */\n      tag_105\n      jump\t// in\n    tag_293:\n        /* \"#utility.yul\":16573:16602   */\n      tag_294\n        /* \"#utility.yul\":16591:16601   */\n      dup5\n        /* \"#utility.yul\":16573:16602   */\n      tag_107\n      jump\t// in\n    tag_294:\n        /* \"#utility.yul\":16563:16571   */\n      dup2\n        /* \"#utility.yul\":16559:16603   */\n      add\n        /* \"#utility.yul\":16756:16758   */\n      0x20\n        /* \"#utility.yul\":16744:16754   */\n      dup6\n        /* \"#utility.yul\":16741:16759   */\n      lt\n        /* \"#utility.yul\":16738:16787   */\n      iszero\n      tag_295\n      jumpi\n        /* \"#utility.yul\":16777:16785   */\n      dup2\n        /* \"#utility.yul\":16762:16785   */\n      swap1\n      pop\n        /* \"#utility.yul\":16738:16787   */\n    tag_295:\n        /* \"#utility.yul\":16800:16880   */\n      tag_296\n        /* \"#utility.yul\":16856:16878   */\n      tag_297\n        /* \"#utility.yul\":16874:16877   */\n      dup6\n        /* \"#utility.yul\":16856:16878   */\n      tag_107\n      jump\t// in\n    tag_297:\n        /* \"#utility.yul\":16846:16854   */\n      dup4\n        /* \"#utility.yul\":16842:16879   */\n      add\n        /* \"#utility.yul\":16829:16840   */\n      dup3\n        /* \"#utility.yul\":16800:16880   */\n      tag_116\n      jump\t// in\n    tag_296:\n        /* \"#utility.yul\":16459:16890   */\n      pop\n      pop\n        /* \"#utility.yul\":16444:16890   */\n    tag_292:\n        /* \"#utility.yul\":16354:16897   */\n      pop\n      pop\n      pop\n      jump\t// out\n        /* \"#utility.yul\":16903:17020   */\n    tag_118:\n        /* \"#utility.yul\":16957:16965   */\n      0x00\n        /* \"#utility.yul\":17007:17012   */\n      dup3\n        /* \"#utility.yul\":17001:17005   */\n      dup3\n        /* \"#utility.yul\":16997:17013   */\n      shr\n        /* \"#utility.yul\":16976:17013   */\n      swap1\n      pop\n        /* \"#utility.yul\":16903:17020   */\n      swap3\n      swap2\n      pop\n      pop\n      jump\t// out\n        /* \"#utility.yul\":17026:17195   */\n    tag_119:\n        /* \"#utility.yul\":17070:17076   */\n      0x00\n        /* \"#utility.yul\":17103:17154   */\n      tag_300\n        /* \"#utility.yul\":17151:17152   */\n      0x00\n        /* \"#utility.yul\":17147:17153   */\n      not\n        /* \"#utility.yul\":17139:17144   */\n      dup5\n        /* \"#utility.yul\":17136:17137   */\n      0x08\n        /* \"#utility.yul\":17132:17145   */\n      mul\n        /* \"#utility.yul\":17103:17154   */\n      tag_118\n      jump\t// in\n    tag_300:\n        /* \"#utility.yul\":17099:17155   */\n      not\n        /* \"#utility.yul\":17184:17188   */\n      dup1\n        /* \"#utility.yul\":17178:17182   */\n      dup4\n        /* \"#utility.yul\":17174:17189   */\n      and\n        /* \"#utility.yul\":17164:17189   */\n      swap2\n      pop\n        /* \"#utility.yul\":17077:17195   */\n      pop\n        /* \"#utility.yul\":17026:17195   */\n      swap3\n      swap2\n      pop\n      pop\n      jump\t// out\n        /* \"#utility.yul\":17200:17495   */\n    tag_120:\n        /* \"#utility.yul\":17276:17280   */\n      0x00\n        /* \"#utility.yul\":17422:17451   */\n      tag_302\n        /* \"#utility.yul\":17447:17450   */\n      dup4\n        /* \"#utility.yul\":17441:17445   */\n      dup4\n        /* \"#utility.yul\":17422:17451   */\n      tag_119\n      jump\t// in\n    tag_302:\n        /* \"#utility.yul\":17414:17451   */\n      swap2\n      pop\n        /* \"#utility.yul\":17484:17487   */\n      dup3\n        /* \"#utility.yul\":17481:17482   */\n      0x02\n        /* \"#utility.yul\":17477:17488   */\n      mul\n        /* \"#utility.yul\":17471:17475   */\n      dup3\n        /* \"#utility.yul\":17468:17489   */\n      or\n        /* \"#utility.yul\":17460:17489   */\n      swap1\n      pop\n        /* \"#utility.yul\":17200:17495   */\n      swap3\n      swap2\n      pop\n      pop\n      jump\t// out\n        /* \"#utility.yul\":17500:18895   */\n    tag_62:\n        /* \"#utility.yul\":17617:17654   */\n      tag_304\n        /* \"#utility.yul\":17650:17653   */\n      dup3\n        /* \"#utility.yul\":17617:17654   */\n      tag_72\n      jump\t// in\n    tag_304:\n        /* \"#utility.yul\":17719:17737   */\n      0xffffffffffffffff\n        /* \"#utility.yul\":17711:17717   */\n      dup2\n        /* \"#utility.yul\":17708:17738   */\n      gt\n        /* \"#utility.yul\":17705:17761   */\n      iszero\n      tag_305\n      jumpi\n        /* \"#utility.yul\":17741:17759   */\n      tag_306\n      tag_91\n      jump\t// in\n    tag_306:\n        /* \"#utility.yul\":17705:17761   */\n    tag_305:\n        /* \"#utility.yul\":17785:17823   */\n      tag_307\n        /* \"#utility.yul\":17817:17821   */\n      dup3\n        /* \"#utility.yul\":17811:17822   */\n      sload\n        /* \"#utility.yul\":17785:17823   */\n      tag_32\n      jump\t// in\n    tag_307:\n        /* \"#utility.yul\":17870:17937   */\n      tag_308\n        /* \"#utility.yul\":17930:17936   */\n      dup3\n        /* \"#utility.yul\":17922:17928   */\n      dup3\n        /* \"#utility.yul\":17916:17920   */\n      dup6\n        /* \"#utility.yul\":17870:17937   */\n      tag_117\n      jump\t// in\n    tag_308:\n        /* \"#utility.yul\":17964:17965   */\n      0x00\n        /* \"#utility.yul\":17988:17992   */\n      0x20\n        /* \"#utility.yul\":17975:17992   */\n      swap1\n      pop\n        /* \"#utility.yul\":18020:18022   */\n      0x1f\n        /* \"#utility.yul\":18012:18018   */\n      dup4\n        /* \"#utility.yul\":18009:18023   */\n      gt\n        /* \"#utility.yul\":18037:18038   */\n      0x01\n        /* \"#utility.yul\":18032:18650   */\n      dup2\n      eq\n      tag_310\n      jumpi\n        /* \"#utility.yul\":18694:18695   */\n      0x00\n        /* \"#utility.yul\":18711:18717   */\n      dup5\n        /* \"#utility.yul\":18708:18785   */\n      iszero\n      tag_311\n      jumpi\n        /* \"#utility.yul\":18760:18769   */\n      dup3\n        /* \"#utility.yul\":18755:18758   */\n      dup8\n        /* \"#utility.yul\":18751:18770   */\n      add\n        /* \"#utility.yul\":18745:18771   */\n      mload\n        /* \"#utility.yul\":18736:18771   */\n      swap1\n      pop\n        /* \"#utility.yul\":18708:18785   */\n    tag_311:\n        /* \"#utility.yul\":18811:18878   */\n      tag_312\n        /* \"#utility.yul\":18871:18877   */\n      dup6\n        /* \"#utility.yul\":18864:18869   */\n      dup3\n        /* \"#utility.yul\":18811:18878   */\n      tag_120\n      jump\t// in\n    tag_312:\n        /* \"#utility.yul\":18805:18809   */\n      dup7\n        /* \"#utility.yul\":18798:18879   */\n      sstore\n        /* \"#utility.yul\":18667:18889   */\n      pop\n        /* \"#utility.yul\":18002:18889   */\n      jump(tag_309)\n        /* \"#utility.yul\":18032:18650   */\n    tag_310:\n        /* \"#utility.yul\":18084:18088   */\n      0x1f\n        /* \"#utility.yul\":18080:18089   */\n      not\n        /* \"#utility.yul\":18072:18078   */\n      dup5\n        /* \"#utility.yul\":18068:18090   */\n      and\n        /* \"#utility.yul\":18118:18155   */\n      tag_313\n        /* \"#utility.yul\":18150:18154   */\n      dup7\n        /* \"#utility.yul\":18118:18155   */\n      tag_105\n      jump\t// in\n    tag_313:\n        /* \"#utility.yul\":18177:18178   */\n      0x00\n        /* \"#utility.yul\":18191:18399   */\n    tag_314:\n        /* \"#utility.yul\":18205:18212   */\n      dup3\n        /* \"#utility.yul\":18202:18203   */\n      dup2\n        /* \"#utility.yul\":18199:18213   */\n      lt\n        /* \"#utility.yul\":18191:18399   */\n      iszero\n      tag_316\n      jumpi\n        /* \"#utility.yul\":18284:18293   */\n      dup5\n        /* \"#utility.yul\":18279:18282   */\n      dup10\n        /* \"#utility.yul\":18275:18294   */\n      add\n        /* \"#utility.yul\":18269:18295   */\n      mload\n        /* \"#utility.yul\":18261:18267   */\n      dup3\n        /* \"#utility.yul\":18254:18296   */\n      sstore\n        /* \"#utility.yul\":18335:18336   */\n      0x01\n        /* \"#utility.yul\":18327:18333   */\n      dup3\n        /* \"#utility.yul\":18323:18337   */\n      add\n        /* \"#utility.yul\":18313:18337   */\n      swap2\n      pop\n        /* \"#utility.yul\":18382:18384   */\n      0x20\n        /* \"#utility.yul\":18371:18380   */\n      dup6\n        /* \"#utility.yul\":18367:18385   */\n      add\n        /* \"#utility.yul\":18354:18385   */\n      swap5\n      pop\n        /* \"#utility.yul\":18228:18232   */\n      0x20\n        /* \"#utility.yul\":18225:18226   */\n      dup2\n        /* \"#utility.yul\":18221:18233   */\n      add\n        /* \"#utility.yul\":18216:18233   */\n      swap1\n      pop\n        /* \"#utility.yul\":18191:18399   */\n      jump(tag_314)\n    tag_316:\n        /* \"#utility.yul\":18427:18433   */\n      dup7\n        /* \"#utility.yul\":18418:18425   */\n      dup4\n        /* \"#utility.yul\":18415:18434   */\n      lt\n        /* \"#utility.yul\":18412:18591   */\n      iszero\n      tag_317\n      jumpi\n        /* \"#utility.yul\":18485:18494   */\n      dup5\n        /* \"#utility.yul\":18480:18483   */\n      dup10\n        /* \"#utility.yul\":18476:18495   */\n      add\n        /* \"#utility.yul\":18470:18496   */\n      mload\n        /* \"#utility.yul\":18528:18576   */\n      tag_318\n        /* \"#utility.yul\":18570:18574   */\n      0x1f\n        /* \"#utility.yul\":18562:18568   */\n      dup10\n        /* \"#utility.yul\":18558:18575   */\n      and\n        /* \"#utility.yul\":18547:18556   */\n      dup3\n        /* \"#utility.yul\":18528:18576   */\n      tag_119\n      jump\t// in\n    tag_318:\n        /* \"#utility.yul\":18520:18526   */\n      dup4\n        /* \"#utility.yul\":18513:18577   */\n      sstore\n        /* \"#utility.yul\":18435:18591   */\n      pop\n        /* \"#utility.yul\":18412:18591   */\n    tag_317:\n        /* \"#utility.yul\":18637:18638   */\n      0x01\n        /* \"#utility.yul\":18633:18634   */\n      0x02\n        /* \"#utility.yul\":18625:18631   */\n      dup9\n        /* \"#utility.yul\":18621:18635   */\n      mul\n        /* \"#utility.yul\":18617:18639   */\n      add\n        /* \"#utility.yul\":18611:18615   */\n      dup9\n        /* \"#utility.yul\":18604:18640   */\n      sstore\n        /* \"#utility.yul\":18039:18650   */\n      pop\n      pop\n      pop\n        /* \"#utility.yul\":18002:18889   */\n    tag_309:\n      pop\n        /* \"#utility.yul\":17592:18895   */\n      pop\n      pop\n      pop\n        /* \"#utility.yul\":17500:18895   */\n      pop\n      pop\n      jump\t// out\n        /* \"#utility.yul\":18901:19214   */\n    tag_64:\n        /* \"#utility.yul\":19014:19018   */\n      0x00\n        /* \"#utility.yul\":19052:19054   */\n      0x20\n        /* \"#utility.yul\":19041:19050   */\n      dup3\n        /* \"#utility.yul\":19037:19055   */\n      add\n        /* \"#utility.yul\":19029:19055   */\n      swap1\n      pop\n        /* \"#utility.yul\":19101:19110   */\n      dup2\n        /* \"#utility.yul\":19095:19099   */\n      dup2\n        /* \"#utility.yul\":19091:19111   */\n      sub\n        /* \"#utility.yul\":19087:19088   */\n      0x00\n        /* \"#utility.yul\":19076:19085   */\n      dup4\n        /* \"#utility.yul\":19072:19089   */\n      add\n        /* \"#utility.yul\":19065:19112   */\n      mstore\n        /* \"#utility.yul\":19129:19207   */\n      tag_320\n        /* \"#utility.yul\":19202:19206   */\n      dup2\n        /* \"#utility.yul\":19193:19199   */\n      dup5\n        /* \"#utility.yul\":19129:19207   */\n      tag_76\n      jump\t// in\n    tag_320:\n        /* \"#utility.yul\":19121:19207   */\n      swap1\n      pop\n        /* \"#utility.yul\":18901:19214   */\n      swap3\n      swap2\n      pop\n      pop\n      jump\t// out\n\n    auxdata: 0xa26469706673582212205a578ac70fee303da8ae7e004ab80ebe21377f141fae613b3b41aa3f0c5bcdcd64736f6c63430008160033\n}\n",
				"bytecode": {
					"linkReferences": {},
					"object": "608060405234801561000f575f80fd5b50335f806101000a81548173ffffffffffffffffffffffffffffffffffffffff021916908373ffffffffffffffffffffffffffffffffffffffff1602179055506111bc8061005c5f395ff3fe608060405234801561000f575f80fd5b5060043610610055575f3560e01c806320e98698146100595780633791dc6a1461008e5780638da5cb5b146100be578063af8dd94a146100dc578063e326559e146100f8575b5f80fd5b610073600480360381019061006e91906107ee565b610114565b604051610085969594939291906108d5565b60405180910390f35b6100a860048036038101906100a391906107ee565b6101de565b6040516100b59190610a27565b60405180910390f35b6100c6610388565b6040516100d39190610a56565b60405180910390f35b6100f660048036038101906100f19190610a99565b6103ab565b005b610112600480360381019061010d9190610c2d565b6105a3565b005b6001602052805f5260405f205f91509050805f01805461013390610cff565b80601f016020809104026020016040519081016040528092919081815260200182805461015f90610cff565b80156101aa5780601f10610181576101008083540402835291602001916101aa565b820191905f5260205f20905b81548152906001019060200180831161018d57829003601f168201915b505050505090806001015490806002015490806003015490806004015490806005015f9054906101000a900460ff16905086565b6101e6610750565b5f60015f8473ffffffffffffffffffffffffffffffffffffffff1673ffffffffffffffffffffffffffffffffffffffff1681526020019081526020015f206003015403610268576040517f08c379a000000000000000000000000000000000000000000000000000000000815260040161025f90610d9f565b60405180910390fd5b60015f8373ffffffffffffffffffffffffffffffffffffffff1673ffffffffffffffffffffffffffffffffffffffff1681526020019081526020015f206040518060c00160405290815f820180546102bf90610cff565b80601f01602080910402602001604051908101604052809291908181526020018280546102eb90610cff565b80156103365780601f1061030d57610100808354040283529160200191610336565b820191905f5260205f20905b81548152906001019060200180831161031957829003601f168201915b5050505050815260200160018201548152602001600282015481526020016003820154815260200160048201548152602001600582015f9054906101000a900460ff1615151515815250509050919050565b5f8054906101000a900473ffffffffffffffffffffffffffffffffffffffff1681565b5f8054906101000a900473ffffffffffffffffffffffffffffffffffffffff1673ffffffffffffffffffffffffffffffffffffffff163373ffffffffffffffffffffffffffffffffffffffff1614610438576040517f08c379a000000000000000000000000000000000000000000000000000000000815260040161042f90610e2d565b60405180910390fd5b5f60015f8473ffffffffffffffffffffffffffffffffffffffff1673ffffffffffffffffffffffffffffffffffffffff1681526020019081526020015f2060030154036104ba576040517f08c379a00000000000000000000000000000000000000000000000000000000081526004016104b190610d9f565b60405180910390fd5b8060015f8473ffffffffffffffffffffffffffffffffffffffff1673ffffffffffffffffffffffffffffffffffffffff1681526020019081526020015f206005015f6101000a81548160ff0219169083151502179055508173ffffffffffffffffffffffffffffffffffffffff167f1c06de2339aa3f2571617536786b43cf2d01b6fd626aeb7aec25cf15007ea9d860015f8573ffffffffffffffffffffffffffffffffffffffff1673ffffffffffffffffffffffffffffffffffffffff1681526020019081526020015f205f0183604051610597929190610ede565b60405180910390a25050565b5f8054906101000a900473ffffffffffffffffffffffffffffffffffffffff1673ffffffffffffffffffffffffffffffffffffffff163373ffffffffffffffffffffffffffffffffffffffff1614610630576040517f08c379a000000000000000000000000000000000000000000000000000000000815260040161062790610e2d565b60405180910390fd5b6040518060c001604052808681526020018581526020018481526020018381526020018281526020015f151581525060015f8873ffffffffffffffffffffffffffffffffffffffff1673ffffffffffffffffffffffffffffffffffffffff1681526020019081526020015f205f820151815f0190816106af9190611097565b506020820151816001015560408201518160020155606082015181600301556080820151816004015560a0820151816005015f6101000a81548160ff0219169083151502179055509050508573ffffffffffffffffffffffffffffffffffffffff167f2afe0ec3281b58bb17cc68a436e9f659b64173970deff8d9f5632a1ef7fb9718866040516107409190611166565b60405180910390a2505050505050565b6040518060c00160405280606081526020015f81526020015f81526020015f81526020015f81526020015f151581525090565b5f604051905090565b5f80fd5b5f80fd5b5f73ffffffffffffffffffffffffffffffffffffffff82169050919050565b5f6107bd82610794565b9050919050565b6107cd816107b3565b81146107d7575f80fd5b50565b5f813590506107e8816107c4565b92915050565b5f602082840312156108035761080261078c565b5b5f610810848285016107da565b91505092915050565b5f81519050919050565b5f82825260208201905092915050565b5f5b83811015610850578082015181840152602081019050610835565b5f8484015250505050565b5f601f19601f8301169050919050565b5f61087582610819565b61087f8185610823565b935061088f818560208601610833565b6108988161085b565b840191505092915050565b5f819050919050565b6108b5816108a3565b82525050565b5f8115159050919050565b6108cf816108bb565b82525050565b5f60c0820190508181035f8301526108ed818961086b565b90506108fc60208301886108ac565b61090960408301876108ac565b61091660608301866108ac565b61092360808301856108ac565b61093060a08301846108c6565b979650505050505050565b5f82825260208201905092915050565b5f61095582610819565b61095f818561093b565b935061096f818560208601610833565b6109788161085b565b840191505092915050565b61098c816108a3565b82525050565b61099b816108bb565b82525050565b5f60c083015f8301518482035f8601526109bb828261094b565b91505060208301516109d06020860182610983565b5060408301516109e36040860182610983565b5060608301516109f66060860182610983565b506080830151610a096080860182610983565b5060a0830151610a1c60a0860182610992565b508091505092915050565b5f6020820190508181035f830152610a3f81846109a1565b905092915050565b610a50816107b3565b82525050565b5f602082019050610a695f830184610a47565b92915050565b610a78816108bb565b8114610a82575f80fd5b50565b5f81359050610a9381610a6f565b92915050565b5f8060408385031215610aaf57610aae61078c565b5b5f610abc858286016107da565b9250506020610acd85828601610a85565b9150509250929050565b5f80fd5b5f80fd5b7f4e487b71000000000000000000000000000000000000000000000000000000005f52604160045260245ffd5b610b158261085b565b810181811067ffffffffffffffff82111715610b3457610b33610adf565b5b80604052505050565b5f610b46610783565b9050610b528282610b0c565b919050565b5f67ffffffffffffffff821115610b7157610b70610adf565b5b610b7a8261085b565b9050602081019050919050565b828183375f83830152505050565b5f610ba7610ba284610b57565b610b3d565b905082815260208101848484011115610bc357610bc2610adb565b5b610bce848285610b87565b509392505050565b5f82601f830112610bea57610be9610ad7565b5b8135610bfa848260208601610b95565b91505092915050565b610c0c816108a3565b8114610c16575f80fd5b50565b5f81359050610c2781610c03565b92915050565b5f805f805f8060c08789031215610c4757610c4661078c565b5b5f610c5489828a016107da565b965050602087013567ffffffffffffffff811115610c7557610c74610790565b5b610c8189828a01610bd6565b9550506040610c9289828a01610c19565b9450506060610ca389828a01610c19565b9350506080610cb489828a01610c19565b92505060a0610cc589828a01610c19565b9150509295509295509295565b7f4e487b71000000000000000000000000000000000000000000000000000000005f52602260045260245ffd5b5f6002820490506001821680610d1657607f821691505b602082108103610d2957610d28610cd2565b5b50919050565b7f506f6c696379206e6f74207265676973746572656420666f72207468652075735f8201527f6572000000000000000000000000000000000000000000000000000000000000602082015250565b5f610d89602283610823565b9150610d9482610d2f565b604082019050919050565b5f6020820190508181035f830152610db681610d7d565b9050919050565b7f4f6e6c7920746865206f776e65722063616e20706572666f726d2074686973205f8201527f616374696f6e0000000000000000000000000000000000000000000000000000602082015250565b5f610e17602683610823565b9150610e2282610dbd565b604082019050919050565b5f6020820190508181035f830152610e4481610e0b565b9050919050565b5f819050815f5260205f209050919050565b5f8154610e6981610cff565b610e738186610823565b9450600182165f8114610e8d5760018114610ea357610ed5565b60ff198316865281151560200286019350610ed5565b610eac85610e4b565b5f5b83811015610ecd57815481890152600182019150602081019050610eae565b808801955050505b50505092915050565b5f6040820190508181035f830152610ef68185610e5d565b9050610f0560208301846108c6565b9392505050565b5f6020601f8301049050919050565b5f82821b905092915050565b5f60088302610f567fffffffffffffffffffffffffffffffffffffffffffffffffffffffffffffffff82610f1b565b610f608683610f1b565b95508019841693508086168417925050509392505050565b5f819050919050565b5f610f9b610f96610f91846108a3565b610f78565b6108a3565b9050919050565b5f819050919050565b610fb483610f81565b610fc8610fc082610fa2565b848454610f27565b825550505050565b5f90565b610fdc610fd0565b610fe7818484610fab565b505050565b5b8181101561100a57610fff5f82610fd4565b600181019050610fed565b5050565b601f82111561104f5761102081610e4b565b61102984610f0c565b81016020851015611038578190505b61104c61104485610f0c565b830182610fec565b50505b505050565b5f82821c905092915050565b5f61106f5f1984600802611054565b1980831691505092915050565b5f6110878383611060565b9150826002028217905092915050565b6110a082610819565b67ffffffffffffffff8111156110b9576110b8610adf565b5b6110c38254610cff565b6110ce82828561100e565b5f60209050601f8311600181146110ff575f84156110ed578287015190505b6110f7858261107c565b86555061115e565b601f19841661110d86610e4b565b5f5b828110156111345784890151825560018201915060208501945060208101905061110f565b86831015611151578489015161114d601f891682611060565b8355505b6001600288020188555050505b505050505050565b5f6020820190508181035f83015261117e818461086b565b90509291505056fea26469706673582212205a578ac70fee303da8ae7e004ab80ebe21377f141fae613b3b41aa3f0c5bcdcd64736f6c63430008160033",
					"opcodes": "PUSH1 0x80 PUSH1 0x40 MSTORE CALLVALUE DUP1 ISZERO PUSH2 0xF JUMPI PUSH0 DUP1 REVERT JUMPDEST POP CALLER PUSH0 DUP1 PUSH2 0x100 EXP DUP2 SLOAD DUP2 PUSH20 0xFFFFFFFFFFFFFFFFFFFFFFFFFFFFFFFFFFFFFFFF MUL NOT AND SWAP1 DUP4 PUSH20 0xFFFFFFFFFFFFFFFFFFFFFFFFFFFFFFFFFFFFFFFF AND MUL OR SWAP1 SSTORE POP PUSH2 0x11BC DUP1 PUSH2 0x5C PUSH0 CODECOPY PUSH0 RETURN INVALID PUSH1 0x80 PUSH1 0x40 MSTORE CALLVALUE DUP1 ISZERO PUSH2 0xF JUMPI PUSH0 DUP1 REVERT JUMPDEST POP PUSH1 0x4 CALLDATASIZE LT PUSH2 0x55 JUMPI PUSH0 CALLDATALOAD PUSH1 0xE0 SHR DUP1 PUSH4 0x20E98698 EQ PUSH2 0x59 JUMPI DUP1 PUSH4 0x3791DC6A EQ PUSH2 0x8E JUMPI DUP1 PUSH4 0x8DA5CB5B EQ PUSH2 0xBE JUMPI DUP1 PUSH4 0xAF8DD94A EQ PUSH2 0xDC JUMPI DUP1 PUSH4 0xE326559E EQ PUSH2 0xF8 JUMPI JUMPDEST PUSH0 DUP1 REVERT JUMPDEST PUSH2 0x73 PUSH1 0x4 DUP1 CALLDATASIZE SUB DUP2 ADD SWAP1 PUSH2 0x6E SWAP2 SWAP1 PUSH2 0x7EE JUMP JUMPDEST PUSH2 0x114 JUMP JUMPDEST PUSH1 0x40 MLOAD PUSH2 0x85 SWAP7 SWAP6 SWAP5 SWAP4 SWAP3 SWAP2 SWAP1 PUSH2 0x8D5 JUMP JUMPDEST PUSH1 0x40 MLOAD DUP1 SWAP2 SUB SWAP1 RETURN JUMPDEST PUSH2 0xA8 PUSH1 0x4 DUP1 CALLDATASIZE SUB DUP2 ADD SWAP1 PUSH2 0xA3 SWAP2 SWAP1 PUSH2 0x7EE JUMP JUMPDEST PUSH2 0x1DE JUMP JUMPDEST PUSH1 0x40 MLOAD PUSH2 0xB5 SWAP2 SWAP1 PUSH2 0xA27 JUMP JUMPDEST PUSH1 0x40 MLOAD DUP1 SWAP2 SUB SWAP1 RETURN JUMPDEST PUSH2 0xC6 PUSH2 0x388 JUMP JUMPDEST PUSH1 0x40 MLOAD PUSH2 0xD3 SWAP2 SWAP1 PUSH2 0xA56 JUMP JUMPDEST PUSH1 0x40 MLOAD DUP1 SWAP2 SUB SWAP1 RETURN JUMPDEST PUSH2 0xF6 PUSH1 0x4 DUP1 CALLDATASIZE SUB DUP2 ADD SWAP1 PUSH2 0xF1 SWAP2 SWAP1 PUSH2 0xA99 JUMP JUMPDEST PUSH2 0x3AB JUMP JUMPDEST STOP JUMPDEST PUSH2 0x112 PUSH1 0x4 DUP1 CALLDATASIZE SUB DUP2 ADD SWAP1 PUSH2 0x10D SWAP2 SWAP1 PUSH2 0xC2D JUMP JUMPDEST PUSH2 0x5A3 JUMP JUMPDEST STOP JUMPDEST PUSH1 0x1 PUSH1 0x20 MSTORE DUP1 PUSH0 MSTORE PUSH1 0x40 PUSH0 KECCAK256 PUSH0 SWAP2 POP SWAP1 POP DUP1 PUSH0 ADD DUP1 SLOAD PUSH2 0x133 SWAP1 PUSH2 0xCFF JUMP JUMPDEST DUP1 PUSH1 0x1F ADD PUSH1 0x20 DUP1 SWAP2 DIV MUL PUSH1 0x20 ADD PUSH1 0x40 MLOAD SWAP1 DUP2 ADD PUSH1 0x40 MSTORE DUP1 SWAP3 SWAP2 SWAP1 DUP2 DUP2 MSTORE PUSH1 0x20 ADD DUP3 DUP1 SLOAD PUSH2 0x15F SWAP1 PUSH2 0xCFF JUMP JUMPDEST DUP1 ISZERO PUSH2 0x1AA JUMPI DUP1 PUSH1 0x1F LT PUSH2 0x181 JUMPI PUSH2 0x100 DUP1 DUP4 SLOAD DIV MUL DUP4 MSTORE SWAP2 PUSH1 0x20 ADD SWAP2 PUSH2 0x1AA JUMP JUMPDEST DUP3 ADD SWAP2 SWAP1 PUSH0 MSTORE PUSH1 0x20 PUSH0 KECCAK256 SWAP1 JUMPDEST DUP2 SLOAD DUP2 MSTORE SWAP1 PUSH1 0x1 ADD SWAP1 PUSH1 0x20 ADD DUP1 DUP4 GT PUSH2 0x18D JUMPI DUP3 SWAP1 SUB PUSH1 0x1F AND DUP3 ADD SWAP2 JUMPDEST POP POP POP POP POP SWAP1 DUP1 PUSH1 0x1 ADD SLOAD SWAP1 DUP1 PUSH1 0x2 ADD SLOAD SWAP1 DUP1 PUSH1 0x3 ADD SLOAD SWAP1 DUP1 PUSH1 0x4 ADD SLOAD SWAP1 DUP1 PUSH1 0x5 ADD PUSH0 SWAP1 SLOAD SWAP1 PUSH2 0x100 EXP SWAP1 DIV PUSH1 0xFF AND SWAP1 POP DUP7 JUMP JUMPDEST PUSH2 0x1E6 PUSH2 0x750 JUMP JUMPDEST PUSH0 PUSH1 0x1 PUSH0 DUP5 PUSH20 0xFFFFFFFFFFFFFFFFFFFFFFFFFFFFFFFFFFFFFFFF AND PUSH20 0xFFFFFFFFFFFFFFFFFFFFFFFFFFFFFFFFFFFFFFFF AND DUP2 MSTORE PUSH1 0x20 ADD SWAP1 DUP2 MSTORE PUSH1 0x20 ADD PUSH0 KECCAK256 PUSH1 0x3 ADD SLOAD SUB PUSH2 0x268 JUMPI PUSH1 0x40 MLOAD PUSH32 0x8C379A000000000000000000000000000000000000000000000000000000000 DUP2 MSTORE PUSH1 0x4 ADD PUSH2 0x25F SWAP1 PUSH2 0xD9F JUMP JUMPDEST PUSH1 0x40 MLOAD DUP1 SWAP2 SUB SWAP1 REVERT JUMPDEST PUSH1 0x1 PUSH0 DUP4 PUSH20 0xFFFFFFFFFFFFFFFFFFFFFFFFFFFFFFFFFFFFFFFF AND PUSH20 0xFFFFFFFFFFFFFFFFFFFFFFFFFFFFFFFFFFFFFFFF AND DUP2 MSTORE PUSH1 0x20 ADD SWAP1 DUP2 MSTORE PUSH1 0x20 ADD PUSH0 KECCAK256 PUSH1 0x40 MLOAD DUP1 PUSH1 0xC0 ADD PUSH1 0x40 MSTORE SWAP1 DUP2 PUSH0 DUP3 ADD DUP1 SLOAD PUSH2 0x2BF SWAP1 PUSH2 0xCFF JUMP JUMPDEST DUP1 PUSH1 0x1F ADD PUSH1 0x20 DUP1 SWAP2 DIV MUL PUSH1 0x20 ADD PUSH1 0x40 MLOAD SWAP1 DUP2 ADD PUSH1 0x40 MSTORE DUP1 SWAP3 SWAP2 SWAP1 DUP2 DUP2 MSTORE PUSH1 0x20 ADD DUP3 DUP1 SLOAD PUSH2 0x2EB SWAP1 PUSH2 0xCFF JUMP JUMPDEST DUP1 ISZERO PUSH2 0x336 JUMPI DUP1 PUSH1 0x1F LT PUSH2 0x30D JUMPI PUSH2 0x100 DUP1 DUP4 SLOAD DIV MUL DUP4 MSTORE SWAP2 PUSH1 0x20 ADD SWAP2 PUSH2 0x336 JUMP JUMPDEST DUP3 ADD SWAP2 SWAP1 PUSH0 MSTORE PUSH1 0x20 PUSH0 KECCAK256 SWAP1 JUMPDEST DUP2 SLOAD DUP2 MSTORE SWAP1 PUSH1 0x1 ADD SWAP1 PUSH1 0x20 ADD DUP1 DUP4 GT PUSH2 0x319 JUMPI DUP3 SWAP1 SUB PUSH1 0x1F AND DUP3 ADD SWAP2 JUMPDEST POP POP POP POP POP DUP2 MSTORE PUSH1 0x20 ADD PUSH1 0x1 DUP3 ADD SLOAD DUP2 MSTORE PUSH1 0x20 ADD PUSH1 0x2 DUP3 ADD SLOAD DUP2 MSTORE PUSH1 0x20 ADD PUSH1 0x3 DUP3 ADD SLOAD DUP2 MSTORE PUSH1 0x20 ADD PUSH1 0x4 DUP3 ADD SLOAD DUP2 MSTORE PUSH1 0x20 ADD PUSH1 0x5 DUP3 ADD PUSH0 SWAP1 SLOAD SWAP1 PUSH2 0x100 EXP SWAP1 DIV PUSH1 0xFF AND ISZERO ISZERO ISZERO ISZERO DUP2 MSTORE POP POP SWAP1 POP SWAP2 SWAP1 POP JUMP JUMPDEST PUSH0 DUP1 SLOAD SWAP1 PUSH2 0x100 EXP SWAP1 DIV PUSH20 0xFFFFFFFFFFFFFFFFFFFFFFFFFFFFFFFFFFFFFFFF AND DUP2 JUMP JUMPDEST PUSH0 DUP1 SLOAD SWAP1 PUSH2 0x100 EXP SWAP1 DIV PUSH20 0xFFFFFFFFFFFFFFFFFFFFFFFFFFFFFFFFFFFFFFFF AND PUSH20 0xFFFFFFFFFFFFFFFFFFFFFFFFFFFFFFFFFFFFFFFF AND CALLER PUSH20 0xFFFFFFFFFFFFFFFFFFFFFFFFFFFFFFFFFFFFFFFF AND EQ PUSH2 0x438 JUMPI PUSH1 0x40 MLOAD PUSH32 0x8C379A000000000000000000000000000000000000000000000000000000000 DUP2 MSTORE PUSH1 0x4 ADD PUSH2 0x42F SWAP1 PUSH2 0xE2D JUMP JUMPDEST PUSH1 0x40 MLOAD DUP1 SWAP2 SUB SWAP1 REVERT JUMPDEST PUSH0 PUSH1 0x1 PUSH0 DUP5 PUSH20 0xFFFFFFFFFFFFFFFFFFFFFFFFFFFFFFFFFFFFFFFF AND PUSH20 0xFFFFFFFFFFFFFFFFFFFFFFFFFFFFFFFFFFFFFFFF AND DUP2 MSTORE PUSH1 0x20 ADD SWAP1 DUP2 MSTORE PUSH1 0x20 ADD PUSH0 KECCAK256 PUSH1 0x3 ADD SLOAD SUB PUSH2 0x4BA JUMPI PUSH1 0x40 MLOAD PUSH32 0x8C379A000000000000000000000000000000000000000000000000000000000 DUP2 MSTORE PUSH1 0x4 ADD PUSH2 0x4B1 SWAP1 PUSH2 0xD9F JUMP JUMPDEST PUSH1 0x40 MLOAD DUP1 SWAP2 SUB SWAP1 REVERT JUMPDEST DUP1 PUSH1 0x1 PUSH0 DUP5 PUSH20 0xFFFFFFFFFFFFFFFFFFFFFFFFFFFFFFFFFFFFFFFF AND PUSH20 0xFFFFFFFFFFFFFFFFFFFFFFFFFFFFFFFFFFFFFFFF AND DUP2 MSTORE PUSH1 0x20 ADD SWAP1 DUP2 MSTORE PUSH1 0x20 ADD PUSH0 KECCAK256 PUSH1 0x5 ADD PUSH0 PUSH2 0x100 EXP DUP2 SLOAD DUP2 PUSH1 0xFF MUL NOT AND SWAP1 DUP4 ISZERO ISZERO MUL OR SWAP1 SSTORE POP DUP2 PUSH20 0xFFFFFFFFFFFFFFFFFFFFFFFFFFFFFFFFFFFFFFFF AND PUSH32 0x1C06DE2339AA3F2571617536786B43CF2D01B6FD626AEB7AEC25CF15007EA9D8 PUSH1 0x1 PUSH0 DUP6 PUSH20 0xFFFFFFFFFFFFFFFFFFFFFFFFFFFFFFFFFFFFFFFF AND PUSH20 0xFFFFFFFFFFFFFFFFFFFFFFFFFFFFFFFFFFFFFFFF AND DUP2 MSTORE PUSH1 0x20 ADD SWAP1 DUP2 MSTORE PUSH1 0x20 ADD PUSH0 KECCAK256 PUSH0 ADD DUP4 PUSH1 0x40 MLOAD PUSH2 0x597 SWAP3 SWAP2 SWAP1 PUSH2 0xEDE JUMP JUMPDEST PUSH1 0x40 MLOAD DUP1 SWAP2 SUB SWAP1 LOG2 POP POP JUMP JUMPDEST PUSH0 DUP1 SLOAD SWAP1 PUSH2 0x100 EXP SWAP1 DIV PUSH20 0xFFFFFFFFFFFFFFFFFFFFFFFFFFFFFFFFFFFFFFFF AND PUSH20 0xFFFFFFFFFFFFFFFFFFFFFFFFFFFFFFFFFFFFFFFF AND CALLER PUSH20 0xFFFFFFFFFFFFFFFFFFFFFFFFFFFFFFFFFFFFFFFF AND EQ PUSH2 0x630 JUMPI PUSH1 0x40 MLOAD PUSH32 0x8C379A000000000000000000000000000000000000000000000000000000000 DUP2 MSTORE PUSH1 0x4 ADD PUSH2 0x627 SWAP1 PUSH2 0xE2D JUMP JUMPDEST PUSH1 0x40 MLOAD DUP1 SWAP2 SUB SWAP1 REVERT JUMPDEST PUSH1 0x40 MLOAD DUP1 PUSH1 0xC0 ADD PUSH1 0x40 MSTORE DUP1 DUP7 DUP2 MSTORE PUSH1 0x20 ADD DUP6 DUP2 MSTORE PUSH1 0x20 ADD DUP5 DUP2 MSTORE PUSH1 0x20 ADD DUP4 DUP2 MSTORE PUSH1 0x20 ADD DUP3 DUP2 MSTORE PUSH1 0x20 ADD PUSH0 ISZERO ISZERO DUP2 MSTORE POP PUSH1 0x1 PUSH0 DUP9 PUSH20 0xFFFFFFFFFFFFFFFFFFFFFFFFFFFFFFFFFFFFFFFF AND PUSH20 0xFFFFFFFFFFFFFFFFFFFFFFFFFFFFFFFFFFFFFFFF AND DUP2 MSTORE PUSH1 0x20 ADD SWAP1 DUP2 MSTORE PUSH1 0x20 ADD PUSH0 KECCAK256 PUSH0 DUP3 ADD MLOAD DUP2 PUSH0 ADD SWAP1 DUP2 PUSH2 0x6AF SWAP2 SWAP1 PUSH2 0x1097 JUMP JUMPDEST POP PUSH1 0x20 DUP3 ADD MLOAD DUP2 PUSH1 0x1 ADD SSTORE PUSH1 0x40 DUP3 ADD MLOAD DUP2 PUSH1 0x2 ADD SSTORE PUSH1 0x60 DUP3 ADD MLOAD DUP2 PUSH1 0x3 ADD SSTORE PUSH1 0x80 DUP3 ADD MLOAD DUP2 PUSH1 0x4 ADD SSTORE PUSH1 0xA0 DUP3 ADD MLOAD DUP2 PUSH1 0x5 ADD PUSH0 PUSH2 0x100 EXP DUP2 SLOAD DUP2 PUSH1 0xFF MUL NOT AND SWAP1 DUP4 ISZERO ISZERO MUL OR SWAP1 SSTORE POP SWAP1 POP POP DUP6 PUSH20 0xFFFFFFFFFFFFFFFFFFFFFFFFFFFFFFFFFFFFFFFF AND PUSH32 0x2AFE0EC3281B58BB17CC68A436E9F659B64173970DEFF8D9F5632A1EF7FB9718 DUP7 PUSH1 0x40 MLOAD PUSH2 0x740 SWAP2 SWAP1 PUSH2 0x1166 JUMP JUMPDEST PUSH1 0x40 MLOAD DUP1 SWAP2 SUB SWAP1 LOG2 POP POP POP POP POP POP JUMP JUMPDEST PUSH1 0x40 MLOAD DUP1 PUSH1 0xC0 ADD PUSH1 0x40 MSTORE DUP1 PUSH1 0x60 DUP2 MSTORE PUSH1 0x20 ADD PUSH0 DUP2 MSTORE PUSH1 0x20 ADD PUSH0 DUP2 MSTORE PUSH1 0x20 ADD PUSH0 DUP2 MSTORE PUSH1 0x20 ADD PUSH0 DUP2 MSTORE PUSH1 0x20 ADD PUSH0 ISZERO ISZERO DUP2 MSTORE POP SWAP1 JUMP JUMPDEST PUSH0 PUSH1 0x40 MLOAD SWAP1 POP SWAP1 JUMP JUMPDEST PUSH0 DUP1 REVERT JUMPDEST PUSH0 DUP1 REVERT JUMPDEST PUSH0 PUSH20 0xFFFFFFFFFFFFFFFFFFFFFFFFFFFFFFFFFFFFFFFF DUP3 AND SWAP1 POP SWAP2 SWAP1 POP JUMP JUMPDEST PUSH0 PUSH2 0x7BD DUP3 PUSH2 0x794 JUMP JUMPDEST SWAP1 POP SWAP2 SWAP1 POP JUMP JUMPDEST PUSH2 0x7CD DUP2 PUSH2 0x7B3 JUMP JUMPDEST DUP2 EQ PUSH2 0x7D7 JUMPI PUSH0 DUP1 REVERT JUMPDEST POP JUMP JUMPDEST PUSH0 DUP2 CALLDATALOAD SWAP1 POP PUSH2 0x7E8 DUP2 PUSH2 0x7C4 JUMP JUMPDEST SWAP3 SWAP2 POP POP JUMP JUMPDEST PUSH0 PUSH1 0x20 DUP3 DUP5 SUB SLT ISZERO PUSH2 0x803 JUMPI PUSH2 0x802 PUSH2 0x78C JUMP JUMPDEST JUMPDEST PUSH0 PUSH2 0x810 DUP5 DUP3 DUP6 ADD PUSH2 0x7DA JUMP JUMPDEST SWAP2 POP POP SWAP3 SWAP2 POP POP JUMP JUMPDEST PUSH0 DUP2 MLOAD SWAP1 POP SWAP2 SWAP1 POP JUMP JUMPDEST PUSH0 DUP3 DUP3 MSTORE PUSH1 0x20 DUP3 ADD SWAP1 POP SWAP3 SWAP2 POP POP JUMP JUMPDEST PUSH0 JUMPDEST DUP4 DUP2 LT ISZERO PUSH2 0x850 JUMPI DUP1 DUP3 ADD MLOAD DUP2 DUP5 ADD MSTORE PUSH1 0x20 DUP2 ADD SWAP1 POP PUSH2 0x835 JUMP JUMPDEST PUSH0 DUP5 DUP5 ADD MSTORE POP POP POP POP JUMP JUMPDEST PUSH0 PUSH1 0x1F NOT PUSH1 0x1F DUP4 ADD AND SWAP1 POP SWAP2 SWAP1 POP JUMP JUMPDEST PUSH0 PUSH2 0x875 DUP3 PUSH2 0x819 JUMP JUMPDEST PUSH2 0x87F DUP2 DUP6 PUSH2 0x823 JUMP JUMPDEST SWAP4 POP PUSH2 0x88F DUP2 DUP6 PUSH1 0x20 DUP7 ADD PUSH2 0x833 JUMP JUMPDEST PUSH2 0x898 DUP2 PUSH2 0x85B JUMP JUMPDEST DUP5 ADD SWAP2 POP POP SWAP3 SWAP2 POP POP JUMP JUMPDEST PUSH0 DUP2 SWAP1 POP SWAP2 SWAP1 POP JUMP JUMPDEST PUSH2 0x8B5 DUP2 PUSH2 0x8A3 JUMP JUMPDEST DUP3 MSTORE POP POP JUMP JUMPDEST PUSH0 DUP2 ISZERO ISZERO SWAP1 POP SWAP2 SWAP1 POP JUMP JUMPDEST PUSH2 0x8CF DUP2 PUSH2 0x8BB JUMP JUMPDEST DUP3 MSTORE POP POP JUMP JUMPDEST PUSH0 PUSH1 0xC0 DUP3 ADD SWAP1 POP DUP2 DUP2 SUB PUSH0 DUP4 ADD MSTORE PUSH2 0x8ED DUP2 DUP10 PUSH2 0x86B JUMP JUMPDEST SWAP1 POP PUSH2 0x8FC PUSH1 0x20 DUP4 ADD DUP9 PUSH2 0x8AC JUMP JUMPDEST PUSH2 0x909 PUSH1 0x40 DUP4 ADD DUP8 PUSH2 0x8AC JUMP JUMPDEST PUSH2 0x916 PUSH1 0x60 DUP4 ADD DUP7 PUSH2 0x8AC JUMP JUMPDEST PUSH2 0x923 PUSH1 0x80 DUP4 ADD DUP6 PUSH2 0x8AC JUMP JUMPDEST PUSH2 0x930 PUSH1 0xA0 DUP4 ADD DUP5 PUSH2 0x8C6 JUMP JUMPDEST SWAP8 SWAP7 POP POP POP POP POP POP POP JUMP JUMPDEST PUSH0 DUP3 DUP3 MSTORE PUSH1 0x20 DUP3 ADD SWAP1 POP SWAP3 SWAP2 POP POP JUMP JUMPDEST PUSH0 PUSH2 0x955 DUP3 PUSH2 0x819 JUMP JUMPDEST PUSH2 0x95F DUP2 DUP6 PUSH2 0x93B JUMP JUMPDEST SWAP4 POP PUSH2 0x96F DUP2 DUP6 PUSH1 0x20 DUP7 ADD PUSH2 0x833 JUMP JUMPDEST PUSH2 0x978 DUP2 PUSH2 0x85B JUMP JUMPDEST DUP5 ADD SWAP2 POP POP SWAP3 SWAP2 POP POP JUMP JUMPDEST PUSH2 0x98C DUP2 PUSH2 0x8A3 JUMP JUMPDEST DUP3 MSTORE POP POP JUMP JUMPDEST PUSH2 0x99B DUP2 PUSH2 0x8BB JUMP JUMPDEST DUP3 MSTORE POP POP JUMP JUMPDEST PUSH0 PUSH1 0xC0 DUP4 ADD PUSH0 DUP4 ADD MLOAD DUP5 DUP3 SUB PUSH0 DUP7 ADD MSTORE PUSH2 0x9BB DUP3 DUP3 PUSH2 0x94B JUMP JUMPDEST SWAP2 POP POP PUSH1 0x20 DUP4 ADD MLOAD PUSH2 0x9D0 PUSH1 0x20 DUP7 ADD DUP3 PUSH2 0x983 JUMP JUMPDEST POP PUSH1 0x40 DUP4 ADD MLOAD PUSH2 0x9E3 PUSH1 0x40 DUP7 ADD DUP3 PUSH2 0x983 JUMP JUMPDEST POP PUSH1 0x60 DUP4 ADD MLOAD PUSH2 0x9F6 PUSH1 0x60 DUP7 ADD DUP3 PUSH2 0x983 JUMP JUMPDEST POP PUSH1 0x80 DUP4 ADD MLOAD PUSH2 0xA09 PUSH1 0x80 DUP7 ADD DUP3 PUSH2 0x983 JUMP JUMPDEST POP PUSH1 0xA0 DUP4 ADD MLOAD PUSH2 0xA1C PUSH1 0xA0 DUP7 ADD DUP3 PUSH2 0x992 JUMP JUMPDEST POP DUP1 SWAP2 POP POP SWAP3 SWAP2 POP POP JUMP JUMPDEST PUSH0 PUSH1 0x20 DUP3 ADD SWAP1 POP DUP2 DUP2 SUB PUSH0 DUP4 ADD MSTORE PUSH2 0xA3F DUP2 DUP5 PUSH2 0x9A1 JUMP JUMPDEST SWAP1 POP SWAP3 SWAP2 POP POP JUMP JUMPDEST PUSH2 0xA50 DUP2 PUSH2 0x7B3 JUMP JUMPDEST DUP3 MSTORE POP POP JUMP JUMPDEST PUSH0 PUSH1 0x20 DUP3 ADD SWAP1 POP PUSH2 0xA69 PUSH0 DUP4 ADD DUP5 PUSH2 0xA47 JUMP JUMPDEST SWAP3 SWAP2 POP POP JUMP JUMPDEST PUSH2 0xA78 DUP2 PUSH2 0x8BB JUMP JUMPDEST DUP2 EQ PUSH2 0xA82 JUMPI PUSH0 DUP1 REVERT JUMPDEST POP JUMP JUMPDEST PUSH0 DUP2 CALLDATALOAD SWAP1 POP PUSH2 0xA93 DUP2 PUSH2 0xA6F JUMP JUMPDEST SWAP3 SWAP2 POP POP JUMP JUMPDEST PUSH0 DUP1 PUSH1 0x40 DUP4 DUP6 SUB SLT ISZERO PUSH2 0xAAF JUMPI PUSH2 0xAAE PUSH2 0x78C JUMP JUMPDEST JUMPDEST PUSH0 PUSH2 0xABC DUP6 DUP3 DUP7 ADD PUSH2 0x7DA JUMP JUMPDEST SWAP3 POP POP PUSH1 0x20 PUSH2 0xACD DUP6 DUP3 DUP7 ADD PUSH2 0xA85 JUMP JUMPDEST SWAP2 POP POP SWAP3 POP SWAP3 SWAP1 POP JUMP JUMPDEST PUSH0 DUP1 REVERT JUMPDEST PUSH0 DUP1 REVERT JUMPDEST PUSH32 0x4E487B7100000000000000000000000000000000000000000000000000000000 PUSH0 MSTORE PUSH1 0x41 PUSH1 0x4 MSTORE PUSH1 0x24 PUSH0 REVERT JUMPDEST PUSH2 0xB15 DUP3 PUSH2 0x85B JUMP JUMPDEST DUP2 ADD DUP2 DUP2 LT PUSH8 0xFFFFFFFFFFFFFFFF DUP3 GT OR ISZERO PUSH2 0xB34 JUMPI PUSH2 0xB33 PUSH2 0xADF JUMP JUMPDEST JUMPDEST DUP1 PUSH1 0x40 MSTORE POP POP POP JUMP JUMPDEST PUSH0 PUSH2 0xB46 PUSH2 0x783 JUMP JUMPDEST SWAP1 POP PUSH2 0xB52 DUP3 DUP3 PUSH2 0xB0C JUMP JUMPDEST SWAP2 SWAP1 POP JUMP JUMPDEST PUSH0 PUSH8 0xFFFFFFFFFFFFFFFF DUP3 GT ISZERO PUSH2 0xB71 JUMPI PUSH2 0xB70 PUSH2 0xADF JUMP JUMPDEST JUMPDEST PUSH2 0xB7A DUP3 PUSH2 0x85B JUMP JUMPDEST SWAP1 POP PUSH1 0x20 DUP2 ADD SWAP1 POP SWAP2 SWAP1 POP JUMP JUMPDEST DUP3 DUP2 DUP4 CALLDATACOPY PUSH0 DUP4 DUP4 ADD MSTORE POP POP POP JUMP JUMPDEST PUSH0 PUSH2 0xBA7 PUSH2 0xBA2 DUP5 PUSH2 0xB57 JUMP JUMPDEST PUSH2 0xB3D JUMP JUMPDEST SWAP1 POP DUP3 DUP2 MSTORE PUSH1 0x20 DUP2 ADD DUP5 DUP5 DUP5 ADD GT ISZERO PUSH2 0xBC3 JUMPI PUSH2 0xBC2 PUSH2 0xADB JUMP JUMPDEST JUMPDEST PUSH2 0xBCE DUP5 DUP3 DUP6 PUSH2 0xB87 JUMP JUMPDEST POP SWAP4 SWAP3 POP POP POP JUMP JUMPDEST PUSH0 DUP3 PUSH1 0x1F DUP4 ADD SLT PUSH2 0xBEA JUMPI PUSH2 0xBE9 PUSH2 0xAD7 JUMP JUMPDEST JUMPDEST DUP2 CALLDATALOAD PUSH2 0xBFA DUP5 DUP3 PUSH1 0x20 DUP7 ADD PUSH2 0xB95 JUMP JUMPDEST SWAP2 POP POP SWAP3 SWAP2 POP POP JUMP JUMPDEST PUSH2 0xC0C DUP2 PUSH2 0x8A3 JUMP JUMPDEST DUP2 EQ PUSH2 0xC16 JUMPI PUSH0 DUP1 REVERT JUMPDEST POP JUMP JUMPDEST PUSH0 DUP2 CALLDATALOAD SWAP1 POP PUSH2 0xC27 DUP2 PUSH2 0xC03 JUMP JUMPDEST SWAP3 SWAP2 POP POP JUMP JUMPDEST PUSH0 DUP1 PUSH0 DUP1 PUSH0 DUP1 PUSH1 0xC0 DUP8 DUP10 SUB SLT ISZERO PUSH2 0xC47 JUMPI PUSH2 0xC46 PUSH2 0x78C JUMP JUMPDEST JUMPDEST PUSH0 PUSH2 0xC54 DUP10 DUP3 DUP11 ADD PUSH2 0x7DA JUMP JUMPDEST SWAP7 POP POP PUSH1 0x20 DUP8 ADD CALLDATALOAD PUSH8 0xFFFFFFFFFFFFFFFF DUP2 GT ISZERO PUSH2 0xC75 JUMPI PUSH2 0xC74 PUSH2 0x790 JUMP JUMPDEST JUMPDEST PUSH2 0xC81 DUP10 DUP3 DUP11 ADD PUSH2 0xBD6 JUMP JUMPDEST SWAP6 POP POP PUSH1 0x40 PUSH2 0xC92 DUP10 DUP3 DUP11 ADD PUSH2 0xC19 JUMP JUMPDEST SWAP5 POP POP PUSH1 0x60 PUSH2 0xCA3 DUP10 DUP3 DUP11 ADD PUSH2 0xC19 JUMP JUMPDEST SWAP4 POP POP PUSH1 0x80 PUSH2 0xCB4 DUP10 DUP3 DUP11 ADD PUSH2 0xC19 JUMP JUMPDEST SWAP3 POP POP PUSH1 0xA0 PUSH2 0xCC5 DUP10 DUP3 DUP11 ADD PUSH2 0xC19 JUMP JUMPDEST SWAP2 POP POP SWAP3 SWAP6 POP SWAP3 SWAP6 POP SWAP3 SWAP6 JUMP JUMPDEST PUSH32 0x4E487B7100000000000000000000000000000000000000000000000000000000 PUSH0 MSTORE PUSH1 0x22 PUSH1 0x4 MSTORE PUSH1 0x24 PUSH0 REVERT JUMPDEST PUSH0 PUSH1 0x2 DUP3 DIV SWAP1 POP PUSH1 0x1 DUP3 AND DUP1 PUSH2 0xD16 JUMPI PUSH1 0x7F DUP3 AND SWAP2 POP JUMPDEST PUSH1 0x20 DUP3 LT DUP2 SUB PUSH2 0xD29 JUMPI PUSH2 0xD28 PUSH2 0xCD2 JUMP JUMPDEST JUMPDEST POP SWAP2 SWAP1 POP JUMP JUMPDEST PUSH32 0x506F6C696379206E6F74207265676973746572656420666F7220746865207573 PUSH0 DUP3 ADD MSTORE PUSH32 0x6572000000000000000000000000000000000000000000000000000000000000 PUSH1 0x20 DUP3 ADD MSTORE POP JUMP JUMPDEST PUSH0 PUSH2 0xD89 PUSH1 0x22 DUP4 PUSH2 0x823 JUMP JUMPDEST SWAP2 POP PUSH2 0xD94 DUP3 PUSH2 0xD2F JUMP JUMPDEST PUSH1 0x40 DUP3 ADD SWAP1 POP SWAP2 SWAP1 POP JUMP JUMPDEST PUSH0 PUSH1 0x20 DUP3 ADD SWAP1 POP DUP2 DUP2 SUB PUSH0 DUP4 ADD MSTORE PUSH2 0xDB6 DUP2 PUSH2 0xD7D JUMP JUMPDEST SWAP1 POP SWAP2 SWAP1 POP JUMP JUMPDEST PUSH32 0x4F6E6C7920746865206F776E65722063616E20706572666F726D207468697320 PUSH0 DUP3 ADD MSTORE PUSH32 0x616374696F6E0000000000000000000000000000000000000000000000000000 PUSH1 0x20 DUP3 ADD MSTORE POP JUMP JUMPDEST PUSH0 PUSH2 0xE17 PUSH1 0x26 DUP4 PUSH2 0x823 JUMP JUMPDEST SWAP2 POP PUSH2 0xE22 DUP3 PUSH2 0xDBD JUMP JUMPDEST PUSH1 0x40 DUP3 ADD SWAP1 POP SWAP2 SWAP1 POP JUMP JUMPDEST PUSH0 PUSH1 0x20 DUP3 ADD SWAP1 POP DUP2 DUP2 SUB PUSH0 DUP4 ADD MSTORE PUSH2 0xE44 DUP2 PUSH2 0xE0B JUMP JUMPDEST SWAP1 POP SWAP2 SWAP1 POP JUMP JUMPDEST PUSH0 DUP2 SWAP1 POP DUP2 PUSH0 MSTORE PUSH1 0x20 PUSH0 KECCAK256 SWAP1 POP SWAP2 SWAP1 POP JUMP JUMPDEST PUSH0 DUP2 SLOAD PUSH2 0xE69 DUP2 PUSH2 0xCFF JUMP JUMPDEST PUSH2 0xE73 DUP2 DUP7 PUSH2 0x823 JUMP JUMPDEST SWAP5 POP PUSH1 0x1 DUP3 AND PUSH0 DUP2 EQ PUSH2 0xE8D JUMPI PUSH1 0x1 DUP2 EQ PUSH2 0xEA3 JUMPI PUSH2 0xED5 JUMP JUMPDEST PUSH1 0xFF NOT DUP4 AND DUP7 MSTORE DUP2 ISZERO ISZERO PUSH1 0x20 MUL DUP7 ADD SWAP4 POP PUSH2 0xED5 JUMP JUMPDEST PUSH2 0xEAC DUP6 PUSH2 0xE4B JUMP JUMPDEST PUSH0 JUMPDEST DUP4 DUP2 LT ISZERO PUSH2 0xECD JUMPI DUP2 SLOAD DUP2 DUP10 ADD MSTORE PUSH1 0x1 DUP3 ADD SWAP2 POP PUSH1 0x20 DUP2 ADD SWAP1 POP PUSH2 0xEAE JUMP JUMPDEST DUP1 DUP9 ADD SWAP6 POP POP POP JUMPDEST POP POP POP SWAP3 SWAP2 POP POP JUMP JUMPDEST PUSH0 PUSH1 0x40 DUP3 ADD SWAP1 POP DUP2 DUP2 SUB PUSH0 DUP4 ADD MSTORE PUSH2 0xEF6 DUP2 DUP6 PUSH2 0xE5D JUMP JUMPDEST SWAP1 POP PUSH2 0xF05 PUSH1 0x20 DUP4 ADD DUP5 PUSH2 0x8C6 JUMP JUMPDEST SWAP4 SWAP3 POP POP POP JUMP JUMPDEST PUSH0 PUSH1 0x20 PUSH1 0x1F DUP4 ADD DIV SWAP1 POP SWAP2 SWAP1 POP JUMP JUMPDEST PUSH0 DUP3 DUP3 SHL SWAP1 POP SWAP3 SWAP2 POP POP JUMP JUMPDEST PUSH0 PUSH1 0x8 DUP4 MUL PUSH2 0xF56 PUSH32 0xFFFFFFFFFFFFFFFFFFFFFFFFFFFFFFFFFFFFFFFFFFFFFFFFFFFFFFFFFFFFFFFF DUP3 PUSH2 0xF1B JUMP JUMPDEST PUSH2 0xF60 DUP7 DUP4 PUSH2 0xF1B JUMP JUMPDEST SWAP6 POP DUP1 NOT DUP5 AND SWAP4 POP DUP1 DUP7 AND DUP5 OR SWAP3 POP POP POP SWAP4 SWAP3 POP POP POP JUMP JUMPDEST PUSH0 DUP2 SWAP1 POP SWAP2 SWAP1 POP JUMP JUMPDEST PUSH0 PUSH2 0xF9B PUSH2 0xF96 PUSH2 0xF91 DUP5 PUSH2 0x8A3 JUMP JUMPDEST PUSH2 0xF78 JUMP JUMPDEST PUSH2 0x8A3 JUMP JUMPDEST SWAP1 POP SWAP2 SWAP1 POP JUMP JUMPDEST PUSH0 DUP2 SWAP1 POP SWAP2 SWAP1 POP JUMP JUMPDEST PUSH2 0xFB4 DUP4 PUSH2 0xF81 JUMP JUMPDEST PUSH2 0xFC8 PUSH2 0xFC0 DUP3 PUSH2 0xFA2 JUMP JUMPDEST DUP5 DUP5 SLOAD PUSH2 0xF27 JUMP JUMPDEST DUP3 SSTORE POP POP POP POP JUMP JUMPDEST PUSH0 SWAP1 JUMP JUMPDEST PUSH2 0xFDC PUSH2 0xFD0 JUMP JUMPDEST PUSH2 0xFE7 DUP2 DUP5 DUP5 PUSH2 0xFAB JUMP JUMPDEST POP POP POP JUMP JUMPDEST JUMPDEST DUP2 DUP2 LT ISZERO PUSH2 0x100A JUMPI PUSH2 0xFFF PUSH0 DUP3 PUSH2 0xFD4 JUMP JUMPDEST PUSH1 0x1 DUP2 ADD SWAP1 POP PUSH2 0xFED JUMP JUMPDEST POP POP JUMP JUMPDEST PUSH1 0x1F DUP3 GT ISZERO PUSH2 0x104F JUMPI PUSH2 0x1020 DUP2 PUSH2 0xE4B JUMP JUMPDEST PUSH2 0x1029 DUP5 PUSH2 0xF0C JUMP JUMPDEST DUP2 ADD PUSH1 0x20 DUP6 LT ISZERO PUSH2 0x1038 JUMPI DUP2 SWAP1 POP JUMPDEST PUSH2 0x104C PUSH2 0x1044 DUP6 PUSH2 0xF0C JUMP JUMPDEST DUP4 ADD DUP3 PUSH2 0xFEC JUMP JUMPDEST POP POP JUMPDEST POP POP POP JUMP JUMPDEST PUSH0 DUP3 DUP3 SHR SWAP1 POP SWAP3 SWAP2 POP POP JUMP JUMPDEST PUSH0 PUSH2 0x106F PUSH0 NOT DUP5 PUSH1 0x8 MUL PUSH2 0x1054 JUMP JUMPDEST NOT DUP1 DUP4 AND SWAP2 POP POP SWAP3 SWAP2 POP POP JUMP JUMPDEST PUSH0 PUSH2 0x1087 DUP4 DUP4 PUSH2 0x1060 JUMP JUMPDEST SWAP2 POP DUP3 PUSH1 0x2 MUL DUP3 OR SWAP1 POP SWAP3 SWAP2 POP POP JUMP JUMPDEST PUSH2 0x10A0 DUP3 PUSH2 0x819 JUMP JUMPDEST PUSH8 0xFFFFFFFFFFFFFFFF DUP2 GT ISZERO PUSH2 0x10B9 JUMPI PUSH2 0x10B8 PUSH2 0xADF JUMP JUMPDEST JUMPDEST PUSH2 0x10C3 DUP3 SLOAD PUSH2 0xCFF JUMP JUMPDEST PUSH2 0x10CE DUP3 DUP3 DUP6 PUSH2 0x100E JUMP JUMPDEST PUSH0 PUSH1 0x20 SWAP1 POP PUSH1 0x1F DUP4 GT PUSH1 0x1 DUP2 EQ PUSH2 0x10FF JUMPI PUSH0 DUP5 ISZERO PUSH2 0x10ED JUMPI DUP3 DUP8 ADD MLOAD SWAP1 POP JUMPDEST PUSH2 0x10F7 DUP6 DUP3 PUSH2 0x107C JUMP JUMPDEST DUP7 SSTORE POP PUSH2 0x115E JUMP JUMPDEST PUSH1 0x1F NOT DUP5 AND PUSH2 0x110D DUP7 PUSH2 0xE4B JUMP JUMPDEST PUSH0 JUMPDEST DUP3 DUP2 LT ISZERO PUSH2 0x1134 JUMPI DUP5 DUP10 ADD MLOAD DUP3 SSTORE PUSH1 0x1 DUP3 ADD SWAP2 POP PUSH1 0x20 DUP6 ADD SWAP5 POP PUSH1 0x20 DUP2 ADD SWAP1 POP PUSH2 0x110F JUMP JUMPDEST DUP7 DUP4 LT ISZERO PUSH2 0x1151 JUMPI DUP5 DUP10 ADD MLOAD PUSH2 0x114D PUSH1 0x1F DUP10 AND DUP3 PUSH2 0x1060 JUMP JUMPDEST DUP4 SSTORE POP JUMPDEST PUSH1 0x1 PUSH1 0x2 DUP9 MUL ADD DUP9 SSTORE POP POP POP JUMPDEST POP POP POP POP POP POP JUMP JUMPDEST PUSH0 PUSH1 0x20 DUP3 ADD SWAP1 POP DUP2 DUP2 SUB PUSH0 DUP4 ADD MSTORE PUSH2 0x117E DUP2 DUP5 PUSH2 0x86B JUMP JUMPDEST SWAP1 POP SWAP3 SWAP2 POP POP JUMP INVALID LOG2 PUSH5 0x6970667358 0x22 SLT KECCAK256 GAS JUMPI DUP11 0xC7 0xF 0xEE ADDRESS RETURNDATASIZE 0xA8 0xAE PUSH31 0x4AB80EBE21377F141FAE613B3B41AA3F0C5BCDCD64736F6C634300081600 CALLER "
				},
				"gasEstimates": {
					"creation": {
						"codeDepositCost": "908000",
						"executionCost": "25205",
						"totalCost": "933205"
					},
					"external": {
						"getPolicy(address)": "infinite",
						"owner()": "2527",
						"policies(address)": "infinite",
						"registerPolicy(address,string,uint256,uint256,uint256,uint256)": "infinite",
						"updatePolicyFraudStatus(address,bool)": "infinite"
					}
				},
				"methodIdentifiers": {
					"getPolicy(address)": "3791dc6a",
					"owner()": "8da5cb5b",
					"policies(address)": "20e98698",
					"registerPolicy(address,string,uint256,uint256,uint256,uint256)": "e326559e",
					"updatePolicyFraudStatus(address,bool)": "af8dd94a"
				}
			},
			"storageLayout": {
				"storage": [
					{
						"astId": 3,
						"contract": "contracts/3_PolicyManagment.sol:PolicyManagementContract",
						"label": "owner",
						"offset": 0,
						"slot": "0",
						"type": "t_address"
					},
					{
						"astId": 8,
						"contract": "contracts/3_PolicyManagment.sol:PolicyManagementContract",
						"label": "policies",
						"offset": 0,
						"slot": "1",
						"type": "t_mapping(t_address,t_struct(Policy)21_storage)"
					}
				],
				"types": {
					"t_address": {
						"encoding": "inplace",
						"label": "address",
						"numberOfBytes": "20"
					},
					"t_bool": {
						"encoding": "inplace",
						"label": "bool",
						"numberOfBytes": "1"
					},
					"t_mapping(t_address,t_struct(Policy)21_storage)": {
						"encoding": "mapping",
						"key": "t_address",
						"label": "mapping(address => struct PolicyManagementContract.Policy)",
						"numberOfBytes": "32",
						"value": "t_struct(Policy)21_storage"
					},
					"t_string_storage": {
						"encoding": "bytes",
						"label": "string",
						"numberOfBytes": "32"
					},
					"t_struct(Policy)21_storage": {
						"encoding": "inplace",
						"label": "struct PolicyManagementContract.Policy",
						"members": [
							{
								"astId": 10,
								"contract": "contracts/3_PolicyManagment.sol:PolicyManagementContract",
								"label": "policyType",
								"offset": 0,
								"slot": "0",
								"type": "t_string_storage"
							},
							{
								"astId": 12,
								"contract": "contracts/3_PolicyManagment.sol:PolicyManagementContract",
								"label": "coverageAmount",
								"offset": 0,
								"slot": "1",
								"type": "t_uint256"
							},
							{
								"astId": 14,
								"contract": "contracts/3_PolicyManagment.sol:PolicyManagementContract",
								"label": "premium",
								"offset": 0,
								"slot": "2",
								"type": "t_uint256"
							},
							{
								"astId": 16,
								"contract": "contracts/3_PolicyManagment.sol:PolicyManagementContract",
								"label": "startDate",
								"offset": 0,
								"slot": "3",
								"type": "t_uint256"
							},
							{
								"astId": 18,
								"contract": "contracts/3_PolicyManagment.sol:PolicyManagementContract",
								"label": "endDate",
								"offset": 0,
								"slot": "4",
								"type": "t_uint256"
							},
							{
								"astId": 20,
								"contract": "contracts/3_PolicyManagment.sol:PolicyManagementContract",
								"label": "isFraudulent",
								"offset": 0,
								"slot": "5",
								"type": "t_bool"
							}
						],
						"numberOfBytes": "192"
					},
					"t_uint256": {
						"encoding": "inplace",
						"label": "uint256",
						"numberOfBytes": "32"
					}
				}
			},
			"userdoc": {
				"kind": "user",
				"methods": {},
				"version": 1
			}
		}
	}
}